{
  "contractName": "Authentication",
  "abi": [
    {
      "inputs": [],
      "payable": false,
      "stateMutability": "nonpayable",
      "type": "constructor"
    },
    {
      "constant": true,
      "inputs": [],
      "name": "election",
      "outputs": [
        {
          "internalType": "contract Election",
          "name": "",
          "type": "address"
        }
      ],
      "payable": false,
      "stateMutability": "view",
      "type": "function"
    },
    {
      "constant": true,
      "inputs": [],
      "name": "id",
      "outputs": [
        {
          "internalType": "uint256",
          "name": "",
          "type": "uint256"
        }
      ],
      "payable": false,
      "stateMutability": "view",
      "type": "function"
    },
    {
      "constant": true,
      "inputs": [],
      "name": "password",
      "outputs": [
        {
          "internalType": "string",
          "name": "",
          "type": "string"
        }
      ],
      "payable": false,
      "stateMutability": "view",
      "type": "function"
    },
    {
      "constant": true,
      "inputs": [
        {
          "internalType": "string",
          "name": "",
          "type": "string"
        }
      ],
      "name": "stringAddress",
      "outputs": [
        {
          "internalType": "address payable",
          "name": "",
          "type": "address"
        }
      ],
      "payable": false,
      "stateMutability": "view",
      "type": "function"
    },
    {
      "constant": true,
      "inputs": [
        {
          "internalType": "string",
          "name": "",
          "type": "string"
        }
      ],
      "name": "uintAddress",
      "outputs": [
        {
          "internalType": "address payable",
          "name": "",
          "type": "address"
        }
      ],
      "payable": false,
      "stateMutability": "view",
      "type": "function"
    },
    {
      "constant": true,
      "inputs": [],
      "name": "username",
      "outputs": [
        {
          "internalType": "string",
          "name": "",
          "type": "string"
        }
      ],
      "payable": false,
      "stateMutability": "view",
      "type": "function"
    }
  ],
  "bytecode": "0x608060405234801561001057600080fd5b50604051806020016040528060008152506000908051906020019061003692919061006a565b50604051806020016040528060008152506001908051906020019061005c92919061006a565b50600060028190555061010f565b828054600181600116156101000203166002900490600052602060002090601f016020900481019282601f106100ab57805160ff19168380011785556100d9565b828001600101855582156100d9579182015b828111156100d85782518255916020019190600101906100bd565b5b5090506100e691906100ea565b5090565b61010c91905b808211156101085760008160009055506001016100f0565b5090565b90565b6105fa8061011e6000396000f3fe608060405234801561001057600080fd5b50600436106100625760003560e01c8063224b610b146100675780634b1d3ede146100ea57806361fac54d1461013457806389600f24146101b7578063af640d0f146102b2578063fddf1a23146102d0575b600080fd5b61006f6103cb565b6040518080602001828103825283818151815260200191508051906020019080838360005b838110156100af578082015181840152602081019050610094565b50505050905090810190601f1680156100dc5780820380516001836020036101000a031916815260200191505b509250505060405180910390f35b6100f2610469565b604051808273ffffffffffffffffffffffffffffffffffffffff1673ffffffffffffffffffffffffffffffffffffffff16815260200191505060405180910390f35b61013c61048f565b6040518080602001828103825283818151815260200191508051906020019080838360005b8381101561017c578082015181840152602081019050610161565b50505050905090810190601f1680156101a95780820380516001836020036101000a031916815260200191505b509250505060405180910390f35b610270600480360360208110156101cd57600080fd5b81019080803590602001906401000000008111156101ea57600080fd5b8201836020820111156101fc57600080fd5b8035906020019184600183028401116401000000008311171561021e57600080fd5b91908080601f016020809104026020016040519081016040528093929190818152602001838380828437600081840152601f19601f82011690508083019250505050505050919291929050505061052d565b604051808273ffffffffffffffffffffffffffffffffffffffff1673ffffffffffffffffffffffffffffffffffffffff16815260200191505060405180910390f35b6102ba610576565b6040518082815260200191505060405180910390f35b610389600480360360208110156102e657600080fd5b810190808035906020019064010000000081111561030357600080fd5b82018360208201111561031557600080fd5b8035906020019184600183028401116401000000008311171561033757600080fd5b91908080601f016020809104026020016040519081016040528093929190818152602001838380828437600081840152601f19601f82011690508083019250505050505050919291929050505061057c565b604051808273ffffffffffffffffffffffffffffffffffffffff1673ffffffffffffffffffffffffffffffffffffffff16815260200191505060405180910390f35b60018054600181600116156101000203166002900480601f0160208091040260200160405190810160405280929190818152602001828054600181600116156101000203166002900480156104615780601f1061043657610100808354040283529160200191610461565b820191906000526020600020905b81548152906001019060200180831161044457829003601f168201915b505050505081565b600360009054906101000a900473ffffffffffffffffffffffffffffffffffffffff1681565b60008054600181600116156101000203166002900480601f0160208091040260200160405190810160405280929190818152602001828054600181600116156101000203166002900480156105255780601f106104fa57610100808354040283529160200191610525565b820191906000526020600020905b81548152906001019060200180831161050857829003601f168201915b505050505081565b6004818051602081018201805184825260208301602085012081835280955050505050506000915054906101000a900473ffffffffffffffffffffffffffffffffffffffff1681565b60025481565b6005818051602081018201805184825260208301602085012081835280955050505050506000915054906101000a900473ffffffffffffffffffffffffffffffffffffffff168156fea265627a7a723158207fc6d636a82c280900415bcfb321cf7238826692490e58ab0db4a567b964520864736f6c63430005100032",
  "source": "pragma solidity 0.5.16;\r\n\r\nimport './Election.sol';\r\n\r\ncontract Authentication{\r\n    string public username;\r\n    string public password;\r\n    uint public id;\r\n    Election public election;\r\n\r\n    mapping(string => address payable) public uintAddress;\r\n    mapping(string => address payable) public stringAddress;\r\n\r\n    constructor() public {\r\n        username = '';\r\n        password = ''; \r\n        id = 0;\r\n    }\r\n\r\n\r\n\r\n}",
  "sourcePath": "F:/Blockchain/Election/Election/contracts/Authentication.sol",
  "compiler": {
    "name": "solc",
    "version": "0.5.16+commit.9c3226ce.Emscripten.clang"
  },
  "schemaVersion": "3.2.3",
  "updatedAt": "2020-10-08T15:53:00.915Z",
  "devdoc": {
    "methods": {}
  },
  "userdoc": {
    "methods": {}
  }
}