{
  "contractName": "Election",
  "abi": [
    {
      "inputs": [],
      "payable": false,
      "stateMutability": "nonpayable",
      "type": "constructor"
    },
    {
      "constant": true,
      "inputs": [
        {
          "internalType": "uint256",
          "name": "",
          "type": "uint256"
        }
      ],
      "name": "candidates",
      "outputs": [
        {
          "internalType": "uint256",
          "name": "id",
          "type": "uint256"
        },
        {
          "internalType": "string",
          "name": "name",
          "type": "string"
        },
        {
          "internalType": "uint256",
          "name": "voteCount",
          "type": "uint256"
        }
      ],
      "payable": false,
      "stateMutability": "view",
      "type": "function"
    },
    {
      "constant": true,
      "inputs": [],
      "name": "candidatesCount",
      "outputs": [
        {
          "internalType": "uint256",
          "name": "",
          "type": "uint256"
        }
      ],
      "payable": false,
      "stateMutability": "view",
      "type": "function"
    },
    {
      "constant": true,
      "inputs": [],
      "name": "manager",
      "outputs": [
        {
          "internalType": "address",
          "name": "",
          "type": "address"
        }
      ],
      "payable": false,
      "stateMutability": "view",
      "type": "function"
    },
    {
      "constant": true,
      "inputs": [
        {
          "internalType": "address",
          "name": "",
          "type": "address"
        }
      ],
      "name": "voters",
      "outputs": [
        {
          "internalType": "bool",
          "name": "exists",
          "type": "bool"
        },
        {
          "internalType": "uint256",
          "name": "id",
          "type": "uint256"
        },
        {
          "internalType": "string",
          "name": "name",
          "type": "string"
        },
        {
          "internalType": "bool",
          "name": "voted",
          "type": "bool"
        }
      ],
      "payable": false,
      "stateMutability": "view",
      "type": "function"
    },
    {
      "constant": true,
      "inputs": [],
      "name": "votersCount",
      "outputs": [
        {
          "internalType": "uint256",
          "name": "",
          "type": "uint256"
        }
      ],
      "payable": false,
      "stateMutability": "view",
      "type": "function"
    },
    {
      "constant": true,
      "inputs": [],
      "name": "winner",
      "outputs": [
        {
          "internalType": "uint256",
          "name": "id",
          "type": "uint256"
        },
        {
          "internalType": "string",
          "name": "name",
          "type": "string"
        },
        {
          "internalType": "uint256",
          "name": "voteCount",
          "type": "uint256"
        }
      ],
      "payable": false,
      "stateMutability": "view",
      "type": "function"
    },
    {
      "constant": false,
      "inputs": [
        {
          "internalType": "uint256",
          "name": "_id",
          "type": "uint256"
        },
        {
          "internalType": "string",
          "name": "_name",
          "type": "string"
        }
      ],
      "name": "addCandidate",
      "outputs": [],
      "payable": false,
      "stateMutability": "nonpayable",
      "type": "function"
    },
    {
      "constant": false,
      "inputs": [
        {
          "internalType": "uint256",
          "name": "_id",
          "type": "uint256"
        },
        {
          "internalType": "string",
          "name": "_name",
          "type": "string"
        },
        {
          "internalType": "address",
          "name": "_address",
          "type": "address"
        }
      ],
      "name": "addVoter",
      "outputs": [],
      "payable": false,
      "stateMutability": "nonpayable",
      "type": "function"
    },
    {
      "constant": false,
      "inputs": [
        {
          "internalType": "uint256",
          "name": "_candidateId",
          "type": "uint256"
        }
      ],
      "name": "vote",
      "outputs": [],
      "payable": false,
      "stateMutability": "nonpayable",
      "type": "function"
    },
    {
      "constant": false,
      "inputs": [],
      "name": "finalizeResult",
      "outputs": [],
      "payable": false,
      "stateMutability": "nonpayable",
      "type": "function"
    }
  ],
  "bytecode": "0x608060405260008055600060015534801561001957600080fd5b5033600260006101000a81548173ffffffffffffffffffffffffffffffffffffffff021916908373ffffffffffffffffffffffffffffffffffffffff160217905550610e318061006a6000396000f3fe608060405234801561001057600080fd5b506004361061009e5760003560e01c806361cac4181161006657806361cac418146102b357806398c07938146102bd578063a3ec138d146102db578063d6c5c361146103b5578063dfbf53ae1461049a5761009e565b80630121b93f146100a35780631750a3d0146100d15780632d35a8a2146101965780633477ee2e146101b4578063481c6a7514610269575b600080fd5b6100cf600480360360208110156100b957600080fd5b810190808035906020019092919050505061052b565b005b610194600480360360408110156100e757600080fd5b81019080803590602001909291908035906020019064010000000081111561010e57600080fd5b82018360208201111561012057600080fd5b8035906020019184600183028401116401000000008311171561014257600080fd5b91908080601f016020809104026020016040519081016040528093929190818152602001838380828437600081840152601f19601f820116905080830192505050505050509192919290505050610668565b005b61019e610749565b6040518082815260200191505060405180910390f35b6101e0600480360360208110156101ca57600080fd5b810190808035906020019092919050505061074f565b6040518084815260200180602001838152602001828103825284818151815260200191508051906020019080838360005b8381101561022c578082015181840152602081019050610211565b50505050905090810190601f1680156102595780820380516001836020036101000a031916815260200191505b5094505050505060405180910390f35b610271610811565b604051808273ffffffffffffffffffffffffffffffffffffffff1673ffffffffffffffffffffffffffffffffffffffff16815260200191505060405180910390f35b6102bb610837565b005b6102c5610944565b6040518082815260200191505060405180910390f35b61031d600480360360208110156102f157600080fd5b81019080803573ffffffffffffffffffffffffffffffffffffffff16906020019092919050505061094a565b60405180851515151581526020018481526020018060200183151515158152602001828103825284818151815260200191508051906020019080838360005b8381101561037757808201518184015260208101905061035c565b50505050905090810190601f1680156103a45780820380516001836020036101000a031916815260200191505b509550505050505060405180910390f35b610498600480360360608110156103cb57600080fd5b8101908080359060200190929190803590602001906401000000008111156103f257600080fd5b82018360208201111561040457600080fd5b8035906020019184600183028401116401000000008311171561042657600080fd5b91908080601f016020809104026020016040519081016040528093929190818152602001838380828437600081840152601f19601f820116905080830192505050505050509192919290803573ffffffffffffffffffffffffffffffffffffffff169060200190929190505050610a2c565b005b6104a2610bd3565b6040518084815260200180602001838152602001828103825284818151815260200191508051906020019080838360005b838110156104ee5780820151818401526020810190506104d3565b50505050905090810190601f16801561051b5780820380516001836020036101000a031916815260200191505b5094505050505060405180910390f35b600460003373ffffffffffffffffffffffffffffffffffffffff1673ffffffffffffffffffffffffffffffffffffffff16815260200190815260200160002060000160009054906101000a900460ff1661058457600080fd5b60001515600460003373ffffffffffffffffffffffffffffffffffffffff1673ffffffffffffffffffffffffffffffffffffffff16815260200190815260200160002060030160009054906101000a900460ff161515146105e457600080fd5b6001600460003373ffffffffffffffffffffffffffffffffffffffff1673ffffffffffffffffffffffffffffffffffffffff16815260200190815260200160002060030160006101000a81548160ff021916908315150217905550600360008281526020019081526020016000206002016000815480929190600101919050555050565b600260009054906101000a900473ffffffffffffffffffffffffffffffffffffffff1673ffffffffffffffffffffffffffffffffffffffff163373ffffffffffffffffffffffffffffffffffffffff16146106c257600080fd5b6106ca610c83565b60405180606001604052808481526020018381526020016000815250905060016000815480929190600101919050555080600360006001548152602001908152602001600020600082015181600001556020820151816001019080519060200190610736929190610ca4565b5060408201518160020155905050505050565b60015481565b6003602052806000526040600020600091509050806000015490806001018054600181600116156101000203166002900480601f0160208091040260200160405190810160405280929190818152602001828054600181600116156101000203166002900480156108015780601f106107d657610100808354040283529160200191610801565b820191906000526020600020905b8154815290600101906020018083116107e457829003601f168201915b5050505050908060020154905083565b600260009054906101000a900473ffffffffffffffffffffffffffffffffffffffff1681565b600260009054906101000a900473ffffffffffffffffffffffffffffffffffffffff1673ffffffffffffffffffffffffffffffffffffffff163373ffffffffffffffffffffffffffffffffffffffff161461089157600080fd5b60008090506000600190505b600154811015610940576003600083815260200190815260200160002060020154600360008381526020019081526020016000206002015411156108df578091505b6003600083815260200190815260200160002060056000820154816000015560018201816001019080546001816001161561010002031660029004610925929190610d24565b5060028201548160020155905050808060010191505061089d565b5050565b60005481565b60046020528060005260406000206000915090508060000160009054906101000a900460ff1690806001015490806002018054600181600116156101000203166002900480601f016020809104026020016040519081016040528092919081815260200182805460018160011615610100020316600290048015610a0f5780601f106109e457610100808354040283529160200191610a0f565b820191906000526020600020905b8154815290600101906020018083116109f257829003601f168201915b5050505050908060030160009054906101000a900460ff16905084565b600260009054906101000a900473ffffffffffffffffffffffffffffffffffffffff1673ffffffffffffffffffffffffffffffffffffffff163373ffffffffffffffffffffffffffffffffffffffff1614610a8657600080fd5b610a8e610dab565b6040518060800160405280600015158152602001858152602001848152602001600015158152509050600080815480929190600101919050555080600460008473ffffffffffffffffffffffffffffffffffffffff1673ffffffffffffffffffffffffffffffffffffffff16815260200190815260200160002060008201518160000160006101000a81548160ff021916908315150217905550602082015181600101556040820151816002019080519060200190610b4e929190610ca4565b5060608201518160030160006101000a81548160ff0219169083151502179055509050506001600460008473ffffffffffffffffffffffffffffffffffffffff1673ffffffffffffffffffffffffffffffffffffffff16815260200190815260200160002060000160006101000a81548160ff02191690831515021790555050505050565b6005806000015490806001018054600181600116156101000203166002900480601f016020809104026020016040519081016040528092919081815260200182805460018160011615610100020316600290048015610c735780601f10610c4857610100808354040283529160200191610c73565b820191906000526020600020905b815481529060010190602001808311610c5657829003601f168201915b5050505050908060020154905083565b60405180606001604052806000815260200160608152602001600081525090565b828054600181600116156101000203166002900490600052602060002090601f016020900481019282601f10610ce557805160ff1916838001178555610d13565b82800160010185558215610d13579182015b82811115610d12578251825591602001919060010190610cf7565b5b509050610d209190610dd7565b5090565b828054600181600116156101000203166002900490600052602060002090601f016020900481019282601f10610d5d5780548555610d9a565b82800160010185558215610d9a57600052602060002091601f016020900482015b82811115610d99578254825591600101919060010190610d7e565b5b509050610da79190610dd7565b5090565b604051806080016040528060001515815260200160008152602001606081526020016000151581525090565b610df991905b80821115610df5576000816000905550600101610ddd565b5090565b9056fea265627a7a7231582053f2d7e7a3cfffcde4b02020db031931214d3cb865a71110d90ce6fac00eb03e64736f6c63430005100032",
  "source": "pragma solidity 0.5.16;\r\n\r\ncontract Election {\r\n    uint public votersCount = 0;\r\n    uint public candidatesCount= 0;\r\n    address public manager;\r\n        \r\n    struct Candidate{\r\n        uint id;\r\n        string name;\r\n        uint voteCount;\r\n    }\r\n\r\n    struct Voter {\r\n        bool exists;\r\n        uint id;\r\n        string name;\r\n        bool voted;\r\n    }\r\n    //mapping is key => value pairs \r\n    mapping(uint => Candidate) public candidates;\r\n    mapping(address => Voter) public voters;\r\n    \r\n    //uint public candidateId;\r\n   \r\n    Candidate public winner;\r\n    \r\n    //sets deployer of contract as its manager\r\n    constructor() public {\r\n        manager = msg.sender;\r\n    }\r\n\r\n    \r\n    //restricts action to manager if used otherwise causes error\r\n    modifier restricted(){\r\n        require(msg.sender == manager);\r\n        _;\r\n    }\r\n\r\n    //manager adds candidates with default values\r\n    function addCandidate(uint _id, string memory _name) public restricted{\r\n        Candidate memory newCandidate = Candidate({\r\n            name: _name,\r\n            id: _id,\r\n            voteCount: 0\r\n        });\r\n\r\n        candidatesCount++;\r\n        candidates[candidatesCount] =  newCandidate;\r\n    }\r\n    \r\n    //manager adds voters with default values\r\n    function addVoter(uint _id, string memory _name, address _address) public restricted{\r\n        Voter memory newVoter = Voter({\r\n            exists : false,\r\n            voted: false,\r\n            name: _name,\r\n            id: _id\r\n           \r\n        });\r\n\r\n        votersCount++;\r\n        voters[_address] = newVoter;\r\n        voters[_address].exists = true;\r\n    }\r\n\r\n    //Voters can vote only once\r\n    function vote(uint _candidateId) public {\r\n        require(voters[msg.sender].exists);\r\n        require(voters[msg.sender].voted == false);\r\n\r\n        voters[msg.sender].voted = true;\r\n        candidates[_candidateId].voteCount++;\r\n\r\n    }\r\n\r\n    //manager declares the winner\r\n    function finalizeResult() public restricted {\r\n        uint maxIndex = 0;\r\n        for (uint i = 1; i < candidatesCount; i++) {\r\n            if(candidates[i].voteCount > candidates[maxIndex].voteCount){\r\n                maxIndex = i;\r\n            }    \r\n        \r\n        winner = candidates[maxIndex];\r\n\r\n        }   \r\n    }\r\n    \r\n       \r\n}",
  "sourcePath": "F:\\Blockchain\\Election\\Election\\contracts\\Election.sol",
  "compiler": {
    "name": "solc",
    "version": "0.5.16+commit.9c3226ce.Emscripten.clang"
  },
  "schemaVersion": "3.2.3",
  "updatedAt": "2020-10-08T15:53:00.929Z",
  "devdoc": {
    "methods": {}
  },
  "userdoc": {
    "methods": {}
  }
}