{
  "contractName": "Election",
  "abi": [
    {
      "inputs": [],
      "payable": false,
      "stateMutability": "nonpayable",
      "type": "constructor"
    },
    {
      "anonymous": false,
      "inputs": [
        {
          "indexed": false,
          "internalType": "uint256",
          "name": "id",
          "type": "uint256"
        },
        {
          "indexed": false,
          "internalType": "string",
          "name": "imghash",
          "type": "string"
        },
        {
          "indexed": false,
          "internalType": "string",
          "name": "description",
          "type": "string"
        }
      ],
      "name": "ImageCreated",
      "type": "event"
    },
    {
      "constant": true,
      "inputs": [
        {
          "internalType": "uint256",
          "name": "",
          "type": "uint256"
        }
      ],
      "name": "candidates",
      "outputs": [
        {
          "internalType": "uint256",
          "name": "id",
          "type": "uint256"
        },
        {
          "internalType": "string",
          "name": "name",
          "type": "string"
        },
        {
          "internalType": "uint256",
          "name": "voteCount",
          "type": "uint256"
        },
        {
          "internalType": "bool",
          "name": "exists",
          "type": "bool"
        },
        {
          "internalType": "string",
          "name": "party",
          "type": "string"
        },
        {
          "internalType": "string",
          "name": "agenda",
          "type": "string"
        }
      ],
      "payable": false,
      "stateMutability": "view",
      "type": "function"
    },
    {
      "constant": true,
      "inputs": [],
      "name": "candidatesCount",
      "outputs": [
        {
          "internalType": "uint256",
          "name": "",
          "type": "uint256"
        }
      ],
      "payable": false,
      "stateMutability": "view",
      "type": "function"
    },
    {
      "constant": true,
      "inputs": [],
      "name": "imageCount",
      "outputs": [
        {
          "internalType": "uint256",
          "name": "",
          "type": "uint256"
        }
      ],
      "payable": false,
      "stateMutability": "view",
      "type": "function"
    },
    {
      "constant": true,
      "inputs": [
        {
          "internalType": "uint256",
          "name": "",
          "type": "uint256"
        }
      ],
      "name": "images",
      "outputs": [
        {
          "internalType": "uint256",
          "name": "id",
          "type": "uint256"
        },
        {
          "internalType": "string",
          "name": "imghash",
          "type": "string"
        },
        {
          "internalType": "string",
          "name": "description",
          "type": "string"
        }
      ],
      "payable": false,
      "stateMutability": "view",
      "type": "function"
    },
    {
      "constant": true,
      "inputs": [],
      "name": "manager",
      "outputs": [
        {
          "internalType": "address",
          "name": "",
          "type": "address"
        }
      ],
      "payable": false,
      "stateMutability": "view",
      "type": "function"
    },
    {
      "constant": true,
      "inputs": [
        {
          "internalType": "address",
          "name": "",
          "type": "address"
        }
      ],
      "name": "voters",
      "outputs": [
        {
          "internalType": "bool",
          "name": "exists",
          "type": "bool"
        },
        {
          "internalType": "uint256",
          "name": "id",
          "type": "uint256"
        },
        {
          "internalType": "string",
          "name": "name",
          "type": "string"
        },
        {
          "internalType": "bool",
          "name": "voted",
          "type": "bool"
        },
        {
          "internalType": "string",
          "name": "password",
          "type": "string"
        },
        {
          "internalType": "bool",
          "name": "authenticated",
          "type": "bool"
        }
      ],
      "payable": false,
      "stateMutability": "view",
      "type": "function"
    },
    {
      "constant": true,
      "inputs": [],
      "name": "votersCount",
      "outputs": [
        {
          "internalType": "uint256",
          "name": "",
          "type": "uint256"
        }
      ],
      "payable": false,
      "stateMutability": "view",
      "type": "function"
    },
    {
      "constant": true,
      "inputs": [],
      "name": "votesCast",
      "outputs": [
        {
          "internalType": "uint256",
          "name": "",
          "type": "uint256"
        }
      ],
      "payable": false,
      "stateMutability": "view",
      "type": "function"
    },
    {
      "constant": true,
      "inputs": [],
      "name": "winner",
      "outputs": [
        {
          "internalType": "uint256",
          "name": "id",
          "type": "uint256"
        },
        {
          "internalType": "string",
          "name": "name",
          "type": "string"
        },
        {
          "internalType": "uint256",
          "name": "voteCount",
          "type": "uint256"
        },
        {
          "internalType": "bool",
          "name": "exists",
          "type": "bool"
        },
        {
          "internalType": "string",
          "name": "party",
          "type": "string"
        },
        {
          "internalType": "string",
          "name": "agenda",
          "type": "string"
        }
      ],
      "payable": false,
      "stateMutability": "view",
      "type": "function"
    },
    {
      "constant": false,
      "inputs": [
        {
          "internalType": "uint256",
          "name": "_id",
          "type": "uint256"
        },
        {
          "internalType": "string",
          "name": "_name",
          "type": "string"
        },
        {
          "internalType": "string",
          "name": "_party",
          "type": "string"
        },
        {
          "internalType": "string",
          "name": "_agenda",
          "type": "string"
        }
      ],
      "name": "addCandidate",
      "outputs": [],
      "payable": false,
      "stateMutability": "nonpayable",
      "type": "function"
    },
    {
      "constant": false,
      "inputs": [
        {
          "internalType": "string",
          "name": "_name",
          "type": "string"
        },
        {
          "internalType": "string",
          "name": "_password",
          "type": "string"
        }
      ],
      "name": "register",
      "outputs": [],
      "payable": false,
      "stateMutability": "nonpayable",
      "type": "function"
    },
    {
      "constant": false,
      "inputs": [
        {
          "internalType": "string",
          "name": "_pass",
          "type": "string"
        }
      ],
      "name": "setVoterPassword",
      "outputs": [],
      "payable": false,
      "stateMutability": "nonpayable",
      "type": "function"
    },
    {
      "constant": false,
      "inputs": [
        {
          "internalType": "uint256",
          "name": "_id",
          "type": "uint256"
        },
        {
          "internalType": "string",
          "name": "_pass",
          "type": "string"
        }
      ],
      "name": "authenticate",
      "outputs": [],
      "payable": false,
      "stateMutability": "nonpayable",
      "type": "function"
    },
    {
      "constant": false,
      "inputs": [
        {
          "internalType": "uint256",
          "name": "_candidateId",
          "type": "uint256"
        }
      ],
      "name": "vote",
      "outputs": [],
      "payable": false,
      "stateMutability": "nonpayable",
      "type": "function"
    },
    {
      "constant": false,
      "inputs": [],
      "name": "finalizeResult",
      "outputs": [],
      "payable": false,
      "stateMutability": "nonpayable",
      "type": "function"
    },
    {
      "constant": false,
      "inputs": [
        {
          "internalType": "uint256",
          "name": "_id",
          "type": "uint256"
        },
        {
          "internalType": "string",
          "name": "_imgHash",
          "type": "string"
        },
        {
          "internalType": "string",
          "name": "_description",
          "type": "string"
        }
      ],
      "name": "uploadImage",
      "outputs": [],
      "payable": false,
      "stateMutability": "nonpayable",
      "type": "function"
    }
  ],
  "bytecode": "0x60806040526000805560006001556000600355600060045534801561002357600080fd5b5033600260006101000a81548173ffffffffffffffffffffffffffffffffffffffff021916908373ffffffffffffffffffffffffffffffffffffffff16021790555061243e806100746000396000f3fe608060405234801561001057600080fd5b50600436106101005760003560e01c80635009272e1161009757806398c079381161006657806398c07938146108c1578063a3ec138d146108df578063ce4a274314610a30578063dfbf53ae14610c2357610100565b80635009272e1461076157806361cac4181461077f578063848564821461078957806392053b63146108a357610100565b80633ffbd47f116100d35780633ffbd47f146103ae578063403ae26f146105005780634639a6ac1461065c578063481c6a751461071757610100565b80630121b93f14610105578063156df73a146101335780632d35a8a2146101f85780633477ee2e14610216575b600080fd5b6101316004803603602081101561011b57600080fd5b8101908080359060200190929190505050610d97565b005b6101f66004803603604081101561014957600080fd5b81019080803590602001909291908035906020019064010000000081111561017057600080fd5b82018360208201111561018257600080fd5b803590602001918460018302840111640100000000831117156101a457600080fd5b91908080601f016020809104026020016040519081016040528093929190818152602001838380828437600081840152601f19601f820116905080830192505050505050509192919290505050610f3f565b005b6102006111d6565b6040518082815260200191505060405180910390f35b6102426004803603602081101561022c57600080fd5b81019080803590602001909291905050506111dc565b6040518087815260200180602001868152602001851515151581526020018060200180602001848103845289818151815260200191508051906020019080838360005b838110156102a0578082015181840152602081019050610285565b50505050905090810190601f1680156102cd5780820380516001836020036101000a031916815260200191505b50848103835286818151815260200191508051906020019080838360005b838110156103065780820151818401526020810190506102eb565b50505050905090810190601f1680156103335780820380516001836020036101000a031916815260200191505b50848103825285818151815260200191508051906020019080838360005b8381101561036c578082015181840152602081019050610351565b50505050905090810190601f1680156103995780820380516001836020036101000a031916815260200191505b50995050505050505050505060405180910390f35b6104fe600480360360408110156103c457600080fd5b81019080803590602001906401000000008111156103e157600080fd5b8201836020820111156103f357600080fd5b8035906020019184600183028401116401000000008311171561041557600080fd5b91908080601f016020809104026020016040519081016040528093929190818152602001838380828437600081840152601f19601f8201169050808301925050505050505091929192908035906020019064010000000081111561047857600080fd5b82018360208201111561048a57600080fd5b803590602001918460018302840111640100000000831117156104ac57600080fd5b91908080601f016020809104026020016040519081016040528093929190818152602001838380828437600081840152601f19601f8201169050808301925050505050505091929192905050506113ed565b005b61065a6004803603606081101561051657600080fd5b81019080803590602001909291908035906020019064010000000081111561053d57600080fd5b82018360208201111561054f57600080fd5b8035906020019184600183028401116401000000008311171561057157600080fd5b91908080601f016020809104026020016040519081016040528093929190818152602001838380828437600081840152601f19601f820116905080830192505050505050509192919290803590602001906401000000008111156105d457600080fd5b8201836020820111156105e657600080fd5b8035906020019184600183028401116401000000008311171561060857600080fd5b91908080601f016020809104026020016040519081016040528093929190818152602001838380828437600081840152601f19601f820116905080830192505050505050509192919290505050611629565b005b6107156004803603602081101561067257600080fd5b810190808035906020019064010000000081111561068f57600080fd5b8201836020820111156106a157600080fd5b803590602001918460018302840111640100000000831117156106c357600080fd5b91908080601f016020809104026020016040519081016040528093929190818152602001838380828437600081840152601f19601f820116905080830192505050505050509192919290505050611851565b005b61071f6119ae565b604051808273ffffffffffffffffffffffffffffffffffffffff1673ffffffffffffffffffffffffffffffffffffffff16815260200191505060405180910390f35b6107696119d4565b6040518082815260200191505060405180910390f35b6107876119da565b005b6107b56004803603602081101561079f57600080fd5b8101908080359060200190929190505050611b65565b604051808481526020018060200180602001838103835285818151815260200191508051906020019080838360005b838110156107ff5780820151818401526020810190506107e4565b50505050905090810190601f16801561082c5780820380516001836020036101000a031916815260200191505b50838103825284818151815260200191508051906020019080838360005b8381101561086557808201518184015260208101905061084a565b50505050905090810190601f1680156108925780820380516001836020036101000a031916815260200191505b509550505050505060405180910390f35b6108ab611cbf565b6040518082815260200191505060405180910390f35b6108c9611cc5565b6040518082815260200191505060405180910390f35b610921600480360360208110156108f557600080fd5b81019080803573ffffffffffffffffffffffffffffffffffffffff169060200190929190505050611ccb565b604051808715151515815260200186815260200180602001851515151581526020018060200184151515158152602001838103835287818151815260200191508051906020019080838360005b8381101561098957808201518184015260208101905061096e565b50505050905090810190601f1680156109b65780820380516001836020036101000a031916815260200191505b50838103825285818151815260200191508051906020019080838360005b838110156109ef5780820151818401526020810190506109d4565b50505050905090810190601f168015610a1c5780820380516001836020036101000a031916815260200191505b509850505050505050505060405180910390f35b610c2160048036036080811015610a4657600080fd5b810190808035906020019092919080359060200190640100000000811115610a6d57600080fd5b820183602082011115610a7f57600080fd5b80359060200191846001830284011164010000000083111715610aa157600080fd5b91908080601f016020809104026020016040519081016040528093929190818152602001838380828437600081840152601f19601f82011690508083019250505050505050919291929080359060200190640100000000811115610b0457600080fd5b820183602082011115610b1657600080fd5b80359060200191846001830284011164010000000083111715610b3857600080fd5b91908080601f016020809104026020016040519081016040528093929190818152602001838380828437600081840152601f19601f82011690508083019250505050505050919291929080359060200190640100000000811115610b9b57600080fd5b820183602082011115610bad57600080fd5b80359060200191846001830284011164010000000083111715610bcf57600080fd5b91908080601f016020809104026020016040519081016040528093929190818152602001838380828437600081840152601f19601f820116905080830192505050505050509192919290505050611e5e565b005b610c2b611fea565b6040518087815260200180602001868152602001851515151581526020018060200180602001848103845289818151815260200191508051906020019080838360005b83811015610c89578082015181840152602081019050610c6e565b50505050905090810190601f168015610cb65780820380516001836020036101000a031916815260200191505b50848103835286818151815260200191508051906020019080838360005b83811015610cef578082015181840152602081019050610cd4565b50505050905090810190601f168015610d1c5780820380516001836020036101000a031916815260200191505b50848103825285818151815260200191508051906020019080838360005b83811015610d55578082015181840152602081019050610d3a565b50505050905090810190601f168015610d825780820380516001836020036101000a031916815260200191505b50995050505050505050505060405180910390f35b600660003373ffffffffffffffffffffffffffffffffffffffff1673ffffffffffffffffffffffffffffffffffffffff16815260200190815260200160002060000160009054906101000a900460ff16610df057600080fd5b600660003373ffffffffffffffffffffffffffffffffffffffff1673ffffffffffffffffffffffffffffffffffffffff16815260200190815260200160002060050160009054906101000a900460ff16610e4957600080fd5b60001515600660003373ffffffffffffffffffffffffffffffffffffffff1673ffffffffffffffffffffffffffffffffffffffff16815260200190815260200160002060030160009054906101000a900460ff16151514610ea957600080fd5b6001600660003373ffffffffffffffffffffffffffffffffffffffff1673ffffffffffffffffffffffffffffffffffffffff16815260200190815260200160002060030160006101000a81548160ff021916908315150217905550600560008281526020019081526020016000206002016000815480929190600101919050555060046000815480929190600101919050555050565b600660003373ffffffffffffffffffffffffffffffffffffffff1673ffffffffffffffffffffffffffffffffffffffff16815260200190815260200160002060000160009054906101000a900460ff16610f9857600080fd5b600660003373ffffffffffffffffffffffffffffffffffffffff1673ffffffffffffffffffffffffffffffffffffffff16815260200190815260200160002060030160009054906101000a900460ff1615610ff257600080fd5b806040516020018082805190602001908083835b602083106110295780518252602082019150602081019050602083039250611006565b6001836020036101000a03801982511681845116808217855250505050505090500191505060405160208183030381529060405280519060200120600660003373ffffffffffffffffffffffffffffffffffffffff1673ffffffffffffffffffffffffffffffffffffffff16815260200190815260200160002060040160405160200180828054600181600116156101000203166002900480156111045780601f106110e2576101008083540402835291820191611104565b820191906000526020600020905b8154815290600101906020018083116110f0575b5050915050604051602081830303815290604052805190602001201461112957600080fd5b81600660003373ffffffffffffffffffffffffffffffffffffffff1673ffffffffffffffffffffffffffffffffffffffff168152602001908152602001600020600101541461117757600080fd5b6001600660003373ffffffffffffffffffffffffffffffffffffffff1673ffffffffffffffffffffffffffffffffffffffff16815260200190815260200160002060050160006101000a81548160ff0219169083151502179055505050565b60015481565b6005602052806000526040600020600091509050806000015490806001018054600181600116156101000203166002900480601f01602080910402602001604051908101604052809291908181526020018280546001816001161561010002031660029004801561128e5780601f106112635761010080835404028352916020019161128e565b820191906000526020600020905b81548152906001019060200180831161127157829003601f168201915b5050505050908060020154908060030160009054906101000a900460ff1690806004018054600181600116156101000203166002900480601f0160208091040260200160405190810160405280929190818152602001828054600181600116156101000203166002900480156113455780601f1061131a57610100808354040283529160200191611345565b820191906000526020600020905b81548152906001019060200180831161132857829003601f168201915b505050505090806005018054600181600116156101000203166002900480601f0160208091040260200160405190810160405280929190818152602001828054600181600116156101000203166002900480156113e35780601f106113b8576101008083540402835291602001916113e3565b820191906000526020600020905b8154815290600101906020018083116113c657829003601f168201915b5050505050905086565b600660003373ffffffffffffffffffffffffffffffffffffffff1673ffffffffffffffffffffffffffffffffffffffff16815260200190815260200160002060000160009054906101000a900460ff161561144757600080fd5b61144f6121e9565b6040518060c0016040528060001515815260200160008152602001848152602001600015158152602001838152602001600015158152509050600080815480929190600101919050555080600660003373ffffffffffffffffffffffffffffffffffffffff1673ffffffffffffffffffffffffffffffffffffffff16815260200190815260200160002060008201518160000160006101000a81548160ff02191690831515021790555060208201518160010155604082015181600201908051906020019061151f929190612225565b5060608201518160030160006101000a81548160ff021916908315150217905550608082015181600401908051906020019061155c929190612225565b5060a08201518160050160006101000a81548160ff021916908315150217905550905050600054600660003373ffffffffffffffffffffffffffffffffffffffff1673ffffffffffffffffffffffffffffffffffffffff168152602001908152602001600020600101819055506001600660003373ffffffffffffffffffffffffffffffffffffffff1673ffffffffffffffffffffffffffffffffffffffff16815260200190815260200160002060000160006101000a81548160ff021916908315150217905550505050565b600260009054906101000a900473ffffffffffffffffffffffffffffffffffffffff1673ffffffffffffffffffffffffffffffffffffffff163373ffffffffffffffffffffffffffffffffffffffff161461168357600080fd5b600082511161169157600080fd5b600081511161169f57600080fd5b600160035401600154146116b257600080fd5b60036000815460010191905081905550604051806060016040528084815260200183815260200182815250600760006003548152602001908152602001600020600082015181600001556020820151816001019080519060200190611718929190612225565b506040820151816002019080519060200190611735929190612225565b509050507f640774224f0df7bbcf12f2b98b83311e0901c56985416fec1d91705f2829338e6003548383604051808481526020018060200180602001838103835285818151815260200191508051906020019080838360005b838110156117a957808201518184015260208101905061178e565b50505050905090810190601f1680156117d65780820380516001836020036101000a031916815260200191505b50838103825284818151815260200191508051906020019080838360005b8381101561180f5780820151818401526020810190506117f4565b50505050905090810190601f16801561183c5780820380516001836020036101000a031916815260200191505b509550505050505060405180910390a1505050565b6000600660003373ffffffffffffffffffffffffffffffffffffffff1673ffffffffffffffffffffffffffffffffffffffff1681526020019081526020016000206001015414156118a157600080fd5b600660003373ffffffffffffffffffffffffffffffffffffffff1673ffffffffffffffffffffffffffffffffffffffff16815260200190815260200160002060000160009054906101000a900460ff166118fa57600080fd5b600660003373ffffffffffffffffffffffffffffffffffffffff1673ffffffffffffffffffffffffffffffffffffffff16815260200190815260200160002060050160009054906101000a900460ff161561195457600080fd5b80600660003373ffffffffffffffffffffffffffffffffffffffff1673ffffffffffffffffffffffffffffffffffffffff16815260200190815260200160002060040190805190602001906119aa9291906122a5565b5050565b600260009054906101000a900473ffffffffffffffffffffffffffffffffffffffff1681565b60045481565b600260009054906101000a900473ffffffffffffffffffffffffffffffffffffffff1673ffffffffffffffffffffffffffffffffffffffff163373ffffffffffffffffffffffffffffffffffffffff1614611a3457600080fd5b6000600190506000600190505b600154811015611b6157600560008381526020019081526020016000206002015460056000838152602001908152602001600020600201541115611a83578091505b6005600083815260200190815260200160002060086000820154816000015560018201816001019080546001816001161561010002031660029004611ac9929190612325565b50600282015481600201556003820160009054906101000a900460ff168160030160006101000a81548160ff02191690831515021790555060048201816004019080546001816001161561010002031660029004611b28929190612325565b5060058201816005019080546001816001161561010002031660029004611b50929190612325565b509050508080600101915050611a41565b5050565b6007602052806000526040600020600091509050806000015490806001018054600181600116156101000203166002900480601f016020809104026020016040519081016040528092919081815260200182805460018160011615610100020316600290048015611c175780601f10611bec57610100808354040283529160200191611c17565b820191906000526020600020905b815481529060010190602001808311611bfa57829003601f168201915b505050505090806002018054600181600116156101000203166002900480601f016020809104026020016040519081016040528092919081815260200182805460018160011615610100020316600290048015611cb55780601f10611c8a57610100808354040283529160200191611cb5565b820191906000526020600020905b815481529060010190602001808311611c9857829003601f168201915b5050505050905083565b60035481565b60005481565b60066020528060005260406000206000915090508060000160009054906101000a900460ff1690806001015490806002018054600181600116156101000203166002900480601f016020809104026020016040519081016040528092919081815260200182805460018160011615610100020316600290048015611d905780601f10611d6557610100808354040283529160200191611d90565b820191906000526020600020905b815481529060010190602001808311611d7357829003601f168201915b5050505050908060030160009054906101000a900460ff1690806004018054600181600116156101000203166002900480601f016020809104026020016040519081016040528092919081815260200182805460018160011615610100020316600290048015611e415780601f10611e1657610100808354040283529160200191611e41565b820191906000526020600020905b815481529060010190602001808311611e2457829003601f168201915b5050505050908060050160009054906101000a900460ff16905086565b600260009054906101000a900473ffffffffffffffffffffffffffffffffffffffff1673ffffffffffffffffffffffffffffffffffffffff163373ffffffffffffffffffffffffffffffffffffffff1614611eb857600080fd5b6005600085815260200190815260200160002060030160009054906101000a900460ff1615611ee657600080fd5b611eee6123ac565b6040518060c0016040528086815260200185815260200160008152602001600115158152602001848152602001838152509050600160008154600101919050819055508460015414611f3f57600080fd5b80600560006001548152602001908152602001600020600082015181600001556020820151816001019080519060200190611f7b929190612225565b506040820151816002015560608201518160030160006101000a81548160ff0219169083151502179055506080820151816004019080519060200190611fc2929190612225565b5060a0820151816005019080519060200190611fdf929190612225565b509050505050505050565b6008806000015490806001018054600181600116156101000203166002900480601f01602080910402602001604051908101604052809291908181526020018280546001816001161561010002031660029004801561208a5780601f1061205f5761010080835404028352916020019161208a565b820191906000526020600020905b81548152906001019060200180831161206d57829003601f168201915b5050505050908060020154908060030160009054906101000a900460ff1690806004018054600181600116156101000203166002900480601f0160208091040260200160405190810160405280929190818152602001828054600181600116156101000203166002900480156121415780601f1061211657610100808354040283529160200191612141565b820191906000526020600020905b81548152906001019060200180831161212457829003601f168201915b505050505090806005018054600181600116156101000203166002900480601f0160208091040260200160405190810160405280929190818152602001828054600181600116156101000203166002900480156121df5780601f106121b4576101008083540402835291602001916121df565b820191906000526020600020905b8154815290600101906020018083116121c257829003601f168201915b5050505050905086565b6040518060c001604052806000151581526020016000815260200160608152602001600015158152602001606081526020016000151581525090565b828054600181600116156101000203166002900490600052602060002090601f016020900481019282601f1061226657805160ff1916838001178555612294565b82800160010185558215612294579182015b82811115612293578251825591602001919060010190612278565b5b5090506122a191906123e4565b5090565b828054600181600116156101000203166002900490600052602060002090601f016020900481019282601f106122e657805160ff1916838001178555612314565b82800160010185558215612314579182015b828111156123135782518255916020019190600101906122f8565b5b50905061232191906123e4565b5090565b828054600181600116156101000203166002900490600052602060002090601f016020900481019282601f1061235e578054855561239b565b8280016001018555821561239b57600052602060002091601f016020900482015b8281111561239a57825482559160010191906001019061237f565b5b5090506123a891906123e4565b5090565b6040518060c0016040528060008152602001606081526020016000815260200160001515815260200160608152602001606081525090565b61240691905b808211156124025760008160009055506001016123ea565b5090565b9056fea265627a7a7231582045f314a2d173f26967ef26edc6a6fa48d3328398be832b8f2226278a0e0fc67b64736f6c63430005100032",
  "source": "pragma solidity 0.5.16;\r\n\r\n// contract ElectionFactory{\r\n//     address[] public deployedElections;\r\n//     function createElection() public {\r\n//         address newElection = address( new Election(msg.sender));\r\n//         deployedElections.push(newElection);\r\n//     }\r\n//     function getDeployedElections() public view returns (address[] memory){\r\n//         return deployedElections;\r\n//     } \r\n// }\r\ncontract Election {\r\n    uint public votersCount = 0;\r\n    uint public candidatesCount= 0;\r\n    address public manager;\r\n    uint public imageCount = 0;\r\n    uint public votesCast = 0;\r\n\r\n    \r\n        \r\n    struct Candidate{\r\n        uint id;\r\n        string name;\r\n        uint voteCount;\r\n        bool exists;\r\n        string party;\r\n        string agenda;\r\n    }\r\n\r\n    struct Image{\r\n        uint id;\r\n        string imghash;\r\n        string description;\r\n\r\n    }\r\n\r\n    struct Voter {\r\n        bool exists;\r\n        uint id;\r\n        string name;\r\n        bool voted;\r\n        string password;\r\n        bool authenticated;\r\n    }\r\n    //mapping is key => value pairs \r\n    mapping(uint => Candidate) public candidates;\r\n    mapping(address => Voter) public voters;\r\n    mapping(uint => Image) public images;\r\n    //uint public candidateId;\r\n   \r\n    Candidate public winner;\r\n    \r\n    //sets deployer of contract as its manager\r\n    //constructor(address _manager) public {\r\n    constructor() public {\r\n    \r\n        manager = msg.sender;\r\n    }\r\n\r\n    \r\n    //restricts action to manager if used otherwise causes error\r\n    modifier restricted(){\r\n        require(msg.sender == manager);\r\n        _;\r\n    }\r\n\r\n    //manager adds candidates with default values\r\n    function addCandidate(uint _id, string memory _name, string memory _party, string memory _agenda) public restricted{\r\n        require(!candidates[_id].exists);\r\n        Candidate memory newCandidate = Candidate({\r\n            name: _name,\r\n            id: _id,\r\n            voteCount: 0,\r\n            exists: true,\r\n            party: _party,\r\n            agenda: _agenda\r\n        });\r\n\r\n        ++candidatesCount;\r\n\r\n        require(candidatesCount == _id);\r\n        candidates[candidatesCount] =  newCandidate;\r\n    }\r\n    \r\n    //manager adds voters with default values\r\n    function register(string memory _name, string memory _password) public {\r\n        require(!voters[msg.sender].exists);\r\n        \r\n        Voter memory newVoter = Voter({\r\n            exists : false,\r\n            voted: false,\r\n            name: _name,\r\n            id: 0,\r\n            password: _password,\r\n            authenticated: false\r\n \r\n        });\r\n\r\n        votersCount++;\r\n        voters[msg.sender] = newVoter;\r\n        voters[msg.sender].id = votersCount;\r\n        voters[msg.sender].exists = true;\r\n    }\r\n\r\n    //lets voters set passwords\r\n    function setVoterPassword(string memory _pass) public {\r\n        require(voters[msg.sender].id!=0);\r\n        require(voters[msg.sender].exists);\r\n        require(!voters[msg.sender].authenticated);\r\n        //to check strings\r\n        //require((keccak256(abi.encodePacked(voters[msg.sender].password)) == keccak256(abi.encodePacked('dfault'))));\r\n\r\n        voters[msg.sender].password = _pass;\r\n    }\r\n\r\n    //Voter authentication\r\n    function authenticate(uint _id,string memory _pass) public {\r\n        require(voters[msg.sender].exists);\r\n        require(!voters[msg.sender].voted);\r\n        require((keccak256(abi.encodePacked(voters[msg.sender].password)) == keccak256(abi.encodePacked(_pass))));\r\n        require(voters[msg.sender].id == _id);\r\n\r\n        //(keccak256(abi.encodePacked(voters[msg.sender].password)) == keccak256(abi.encodePacked(_pass)));\r\n        voters[msg.sender].authenticated = true;\r\n    }\r\n\r\n    //Voters can vote only once\r\n    function vote(uint _candidateId) public {\r\n        require(voters[msg.sender].exists);\r\n        require(voters[msg.sender].authenticated);\r\n        require(voters[msg.sender].voted == false);\r\n\r\n        voters[msg.sender].voted = true;\r\n        candidates[_candidateId].voteCount++;\r\n        votesCast++;\r\n    }\r\n\r\n    //only manager declares the winner\r\n    function finalizeResult() public restricted {\r\n        uint maxIndex = 1;\r\n        for (uint i = 1; i < candidatesCount; i++) {\r\n            if(candidates[i].voteCount > candidates[maxIndex].voteCount){\r\n                maxIndex = i;\r\n            }    \r\n        \r\n        winner = candidates[maxIndex];\r\n\r\n        }   \r\n    }\r\n\r\n    \r\n  event ImageCreated(\r\n    uint id,\r\n    string imghash,\r\n    string description\r\n  );\r\n\r\n    function uploadImage(uint _id, string memory _imgHash, string memory _description) public restricted {\r\n    // Make sure the image hash exists\r\n    require(bytes(_imgHash).length > 0);\r\n    // Make sure image description exists\r\n    require(bytes(_description).length > 0); \r\n    // Make sure uploader address exists\r\n\r\n    require(candidatesCount == imageCount+1);\r\n    // Increment image id\r\n    ++imageCount;\r\n    //require(imageCount == candidatesCount);\r\n    // Add Image to the contract\r\n    images[imageCount] = Image(_id, _imgHash, _description);\r\n    // Trigger an event\r\n    emit ImageCreated(imageCount, _imgHash, _description);\r\n  }\r\n}",
  "sourcePath": "F:/Blockchain/Election/Election/contracts/Election.sol",
  "compiler": {
    "name": "solc",
    "version": "0.5.16+commit.9c3226ce.Emscripten.clang"
  },
  "schemaVersion": "3.2.3",
  "updatedAt": "2020-12-10T17:00:34.711Z",
  "networkType": "ethereum",
  "devdoc": {
    "methods": {}
  },
  "userdoc": {
    "methods": {}
  }
}