{
  "contractName": "Election",
  "abi": [
    {
      "inputs": [],
      "payable": false,
      "stateMutability": "nonpayable",
      "type": "constructor"
    },
    {
      "anonymous": false,
      "inputs": [
        {
          "indexed": false,
          "internalType": "uint256",
          "name": "id",
          "type": "uint256"
        },
        {
          "indexed": false,
          "internalType": "string",
          "name": "imghash",
          "type": "string"
        },
        {
          "indexed": false,
          "internalType": "string",
          "name": "description",
          "type": "string"
        }
      ],
      "name": "ImageCreated",
      "type": "event"
    },
    {
      "constant": true,
      "inputs": [
        {
          "internalType": "uint256",
          "name": "",
          "type": "uint256"
        }
      ],
      "name": "candidates",
      "outputs": [
        {
          "internalType": "uint256",
          "name": "id",
          "type": "uint256"
        },
        {
          "internalType": "string",
          "name": "name",
          "type": "string"
        },
        {
          "internalType": "uint256",
          "name": "voteCount",
          "type": "uint256"
        },
        {
          "internalType": "bool",
          "name": "exists",
          "type": "bool"
        }
      ],
      "payable": false,
      "stateMutability": "view",
      "type": "function"
    },
    {
      "constant": true,
      "inputs": [],
      "name": "candidatesCount",
      "outputs": [
        {
          "internalType": "uint256",
          "name": "",
          "type": "uint256"
        }
      ],
      "payable": false,
      "stateMutability": "view",
      "type": "function"
    },
    {
      "constant": true,
      "inputs": [],
      "name": "imageCount",
      "outputs": [
        {
          "internalType": "uint256",
          "name": "",
          "type": "uint256"
        }
      ],
      "payable": false,
      "stateMutability": "view",
      "type": "function"
    },
    {
      "constant": true,
      "inputs": [
        {
          "internalType": "uint256",
          "name": "",
          "type": "uint256"
        }
      ],
      "name": "images",
      "outputs": [
        {
          "internalType": "uint256",
          "name": "id",
          "type": "uint256"
        },
        {
          "internalType": "string",
          "name": "imghash",
          "type": "string"
        },
        {
          "internalType": "string",
          "name": "description",
          "type": "string"
        }
      ],
      "payable": false,
      "stateMutability": "view",
      "type": "function"
    },
    {
      "constant": true,
      "inputs": [],
      "name": "manager",
      "outputs": [
        {
          "internalType": "address",
          "name": "",
          "type": "address"
        }
      ],
      "payable": false,
      "stateMutability": "view",
      "type": "function"
    },
    {
      "constant": true,
      "inputs": [
        {
          "internalType": "address",
          "name": "",
          "type": "address"
        }
      ],
      "name": "voters",
      "outputs": [
        {
          "internalType": "bool",
          "name": "exists",
          "type": "bool"
        },
        {
          "internalType": "uint256",
          "name": "id",
          "type": "uint256"
        },
        {
          "internalType": "string",
          "name": "name",
          "type": "string"
        },
        {
          "internalType": "bool",
          "name": "voted",
          "type": "bool"
        },
        {
          "internalType": "string",
          "name": "password",
          "type": "string"
        },
        {
          "internalType": "bool",
          "name": "authenticated",
          "type": "bool"
        }
      ],
      "payable": false,
      "stateMutability": "view",
      "type": "function"
    },
    {
      "constant": true,
      "inputs": [],
      "name": "votersCount",
      "outputs": [
        {
          "internalType": "uint256",
          "name": "",
          "type": "uint256"
        }
      ],
      "payable": false,
      "stateMutability": "view",
      "type": "function"
    },
    {
      "constant": true,
      "inputs": [],
      "name": "votesCast",
      "outputs": [
        {
          "internalType": "uint256",
          "name": "",
          "type": "uint256"
        }
      ],
      "payable": false,
      "stateMutability": "view",
      "type": "function"
    },
    {
      "constant": true,
      "inputs": [],
      "name": "winner",
      "outputs": [
        {
          "internalType": "uint256",
          "name": "id",
          "type": "uint256"
        },
        {
          "internalType": "string",
          "name": "name",
          "type": "string"
        },
        {
          "internalType": "uint256",
          "name": "voteCount",
          "type": "uint256"
        },
        {
          "internalType": "bool",
          "name": "exists",
          "type": "bool"
        }
      ],
      "payable": false,
      "stateMutability": "view",
      "type": "function"
    },
    {
      "constant": false,
      "inputs": [
        {
          "internalType": "uint256",
          "name": "_id",
          "type": "uint256"
        },
        {
          "internalType": "string",
          "name": "_name",
          "type": "string"
        }
      ],
      "name": "addCandidate",
      "outputs": [],
      "payable": false,
      "stateMutability": "nonpayable",
      "type": "function"
    },
    {
      "constant": false,
      "inputs": [
        {
          "internalType": "string",
          "name": "_name",
          "type": "string"
        }
      ],
      "name": "register",
      "outputs": [],
      "payable": false,
      "stateMutability": "nonpayable",
      "type": "function"
    },
    {
      "constant": false,
      "inputs": [
        {
          "internalType": "string",
          "name": "_pass",
          "type": "string"
        }
      ],
      "name": "setVoterPassword",
      "outputs": [],
      "payable": false,
      "stateMutability": "nonpayable",
      "type": "function"
    },
    {
      "constant": false,
      "inputs": [
        {
          "internalType": "uint256",
          "name": "_id",
          "type": "uint256"
        },
        {
          "internalType": "string",
          "name": "_pass",
          "type": "string"
        }
      ],
      "name": "authenticate",
      "outputs": [],
      "payable": false,
      "stateMutability": "nonpayable",
      "type": "function"
    },
    {
      "constant": false,
      "inputs": [
        {
          "internalType": "uint256",
          "name": "_candidateId",
          "type": "uint256"
        }
      ],
      "name": "vote",
      "outputs": [],
      "payable": false,
      "stateMutability": "nonpayable",
      "type": "function"
    },
    {
      "constant": false,
      "inputs": [],
      "name": "finalizeResult",
      "outputs": [],
      "payable": false,
      "stateMutability": "nonpayable",
      "type": "function"
    },
    {
      "constant": false,
      "inputs": [
        {
          "internalType": "uint256",
          "name": "_id",
          "type": "uint256"
        },
        {
          "internalType": "string",
          "name": "_imgHash",
          "type": "string"
        },
        {
          "internalType": "string",
          "name": "_description",
          "type": "string"
        }
      ],
      "name": "uploadImage",
      "outputs": [],
      "payable": false,
      "stateMutability": "nonpayable",
      "type": "function"
    }
  ],
  "bytecode": "0x60806040526000805560006001556000600355600060045534801561002357600080fd5b5033600260006101000a81548173ffffffffffffffffffffffffffffffffffffffff021916908373ffffffffffffffffffffffffffffffffffffffff160217905550611eea806100746000396000f3fe608060405234801561001057600080fd5b50600436106101005760003560e01c80635009272e1161009757806398c079381161006657806398c079381461075c578063a3ec138d1461077a578063dfbf53ae146108cb578063f2c298be1461096757610100565b80635009272e146105fc57806361cac4181461061a578063848564821461062457806392053b631461073e57610100565b80633477ee2e116100d35780633477ee2e146102db578063403ae26f1461039b5780634639a6ac146104f7578063481c6a75146105b257610100565b80630121b93f14610105578063156df73a146101335780631750a3d0146101f85780632d35a8a2146102bd575b600080fd5b6101316004803603602081101561011b57600080fd5b8101908080359060200190929190505050610a22565b005b6101f66004803603604081101561014957600080fd5b81019080803590602001909291908035906020019064010000000081111561017057600080fd5b82018360208201111561018257600080fd5b803590602001918460018302840111640100000000831117156101a457600080fd5b91908080601f016020809104026020016040519081016040528093929190818152602001838380828437600081840152601f19601f820116905080830192505050505050509192919290505050610bca565b005b6102bb6004803603604081101561020e57600080fd5b81019080803590602001909291908035906020019064010000000081111561023557600080fd5b82018360208201111561024757600080fd5b8035906020019184600183028401116401000000008311171561026957600080fd5b91908080601f016020809104026020016040519081016040528093929190818152602001838380828437600081840152601f19601f820116905080830192505050505050509192919290505050610e61565b005b6102c5610fa5565b6040518082815260200191505060405180910390f35b610307600480360360208110156102f157600080fd5b8101908080359060200190929190505050610fab565b604051808581526020018060200184815260200183151515158152602001828103825285818151815260200191508051906020019080838360005b8381101561035d578082015181840152602081019050610342565b50505050905090810190601f16801561038a5780820380516001836020036101000a031916815260200191505b509550505050505060405180910390f35b6104f5600480360360608110156103b157600080fd5b8101908080359060200190929190803590602001906401000000008111156103d857600080fd5b8201836020820111156103ea57600080fd5b8035906020019184600183028401116401000000008311171561040c57600080fd5b91908080601f016020809104026020016040519081016040528093929190818152602001838380828437600081840152601f19601f8201169050808301925050505050505091929192908035906020019064010000000081111561046f57600080fd5b82018360208201111561048157600080fd5b803590602001918460018302840111640100000000831117156104a357600080fd5b91908080601f016020809104026020016040519081016040528093929190818152602001838380828437600081840152601f19601f820116905080830192505050505050509192919290505050611080565b005b6105b06004803603602081101561050d57600080fd5b810190808035906020019064010000000081111561052a57600080fd5b82018360208201111561053c57600080fd5b8035906020019184600183028401116401000000008311171561055e57600080fd5b91908080601f016020809104026020016040519081016040528093929190818152602001838380828437600081840152601f19601f8201169050808301925050505050505091929192905050506112a8565b005b6105ba611511565b604051808273ffffffffffffffffffffffffffffffffffffffff1673ffffffffffffffffffffffffffffffffffffffff16815260200191505060405180910390f35b610604611537565b6040518082815260200191505060405180910390f35b61062261153d565b005b6106506004803603602081101561063a57600080fd5b8101908080359060200190929190505050611677565b604051808481526020018060200180602001838103835285818151815260200191508051906020019080838360005b8381101561069a57808201518184015260208101905061067f565b50505050905090810190601f1680156106c75780820380516001836020036101000a031916815260200191505b50838103825284818151815260200191508051906020019080838360005b838110156107005780820151818401526020810190506106e5565b50505050905090810190601f16801561072d5780820380516001836020036101000a031916815260200191505b509550505050505060405180910390f35b6107466117d1565b6040518082815260200191505060405180910390f35b6107646117d7565b6040518082815260200191505060405180910390f35b6107bc6004803603602081101561079057600080fd5b81019080803573ffffffffffffffffffffffffffffffffffffffff1690602001909291905050506117dd565b604051808715151515815260200186815260200180602001851515151581526020018060200184151515158152602001838103835287818151815260200191508051906020019080838360005b83811015610824578082015181840152602081019050610809565b50505050905090810190601f1680156108515780820380516001836020036101000a031916815260200191505b50838103825285818151815260200191508051906020019080838360005b8381101561088a57808201518184015260208101905061086f565b50505050905090810190601f1680156108b75780820380516001836020036101000a031916815260200191505b509850505050505050505060405180910390f35b6108d3611970565b604051808581526020018060200184815260200183151515158152602001828103825285818151815260200191508051906020019080838360005b8381101561092957808201518184015260208101905061090e565b50505050905090810190601f1680156109565780820380516001836020036101000a031916815260200191505b509550505050505060405180910390f35b610a206004803603602081101561097d57600080fd5b810190808035906020019064010000000081111561099a57600080fd5b8201836020820111156109ac57600080fd5b803590602001918460018302840111640100000000831117156109ce57600080fd5b91908080601f016020809104026020016040519081016040528093929190818152602001838380828437600081840152601f19601f820116905080830192505050505050509192919290505050611a33565b005b600660003373ffffffffffffffffffffffffffffffffffffffff1673ffffffffffffffffffffffffffffffffffffffff16815260200190815260200160002060000160009054906101000a900460ff16610a7b57600080fd5b600660003373ffffffffffffffffffffffffffffffffffffffff1673ffffffffffffffffffffffffffffffffffffffff16815260200190815260200160002060050160009054906101000a900460ff16610ad457600080fd5b60001515600660003373ffffffffffffffffffffffffffffffffffffffff1673ffffffffffffffffffffffffffffffffffffffff16815260200190815260200160002060030160009054906101000a900460ff16151514610b3457600080fd5b6001600660003373ffffffffffffffffffffffffffffffffffffffff1673ffffffffffffffffffffffffffffffffffffffff16815260200190815260200160002060030160006101000a81548160ff021916908315150217905550600560008281526020019081526020016000206002016000815480929190600101919050555060046000815480929190600101919050555050565b600660003373ffffffffffffffffffffffffffffffffffffffff1673ffffffffffffffffffffffffffffffffffffffff16815260200190815260200160002060000160009054906101000a900460ff16610c2357600080fd5b600660003373ffffffffffffffffffffffffffffffffffffffff1673ffffffffffffffffffffffffffffffffffffffff16815260200190815260200160002060030160009054906101000a900460ff1615610c7d57600080fd5b806040516020018082805190602001908083835b60208310610cb45780518252602082019150602081019050602083039250610c91565b6001836020036101000a03801982511681845116808217855250505050505090500191505060405160208183030381529060405280519060200120600660003373ffffffffffffffffffffffffffffffffffffffff1673ffffffffffffffffffffffffffffffffffffffff1681526020019081526020016000206004016040516020018082805460018160011615610100020316600290048015610d8f5780601f10610d6d576101008083540402835291820191610d8f565b820191906000526020600020905b815481529060010190602001808311610d7b575b50509150506040516020818303038152906040528051906020012014610db457600080fd5b81600660003373ffffffffffffffffffffffffffffffffffffffff1673ffffffffffffffffffffffffffffffffffffffff1681526020019081526020016000206001015414610e0257600080fd5b6001600660003373ffffffffffffffffffffffffffffffffffffffff1673ffffffffffffffffffffffffffffffffffffffff16815260200190815260200160002060050160006101000a81548160ff0219169083151502179055505050565b600260009054906101000a900473ffffffffffffffffffffffffffffffffffffffff1673ffffffffffffffffffffffffffffffffffffffff163373ffffffffffffffffffffffffffffffffffffffff1614610ebb57600080fd5b6005600083815260200190815260200160002060030160009054906101000a900460ff1615610ee957600080fd5b610ef1611ca3565b604051806080016040528084815260200183815260200160008152602001600115158152509050600160008154600101919050819055508260015414610f3657600080fd5b80600560006001548152602001908152602001600020600082015181600001556020820151816001019080519060200190610f72929190611ccd565b506040820151816002015560608201518160030160006101000a81548160ff021916908315150217905550905050505050565b60015481565b6005602052806000526040600020600091509050806000015490806001018054600181600116156101000203166002900480601f01602080910402602001604051908101604052809291908181526020018280546001816001161561010002031660029004801561105d5780601f106110325761010080835404028352916020019161105d565b820191906000526020600020905b81548152906001019060200180831161104057829003601f168201915b5050505050908060020154908060030160009054906101000a900460ff16905084565b600260009054906101000a900473ffffffffffffffffffffffffffffffffffffffff1673ffffffffffffffffffffffffffffffffffffffff163373ffffffffffffffffffffffffffffffffffffffff16146110da57600080fd5b60008251116110e857600080fd5b60008151116110f657600080fd5b6001600354016001541461110957600080fd5b6003600081546001019190508190555060405180606001604052808481526020018381526020018281525060076000600354815260200190815260200160002060008201518160000155602082015181600101908051906020019061116f929190611ccd565b50604082015181600201908051906020019061118c929190611ccd565b509050507f640774224f0df7bbcf12f2b98b83311e0901c56985416fec1d91705f2829338e6003548383604051808481526020018060200180602001838103835285818151815260200191508051906020019080838360005b838110156112005780820151818401526020810190506111e5565b50505050905090810190601f16801561122d5780820380516001836020036101000a031916815260200191505b50838103825284818151815260200191508051906020019080838360005b8381101561126657808201518184015260208101905061124b565b50505050905090810190601f1680156112935780820380516001836020036101000a031916815260200191505b509550505050505060405180910390a1505050565b6000600660003373ffffffffffffffffffffffffffffffffffffffff1673ffffffffffffffffffffffffffffffffffffffff1681526020019081526020016000206001015414156112f857600080fd5b600660003373ffffffffffffffffffffffffffffffffffffffff1673ffffffffffffffffffffffffffffffffffffffff16815260200190815260200160002060000160009054906101000a900460ff1661135157600080fd5b600660003373ffffffffffffffffffffffffffffffffffffffff1673ffffffffffffffffffffffffffffffffffffffff16815260200190815260200160002060050160009054906101000a900460ff16156113ab57600080fd5b60405160200180807f646661756c740000000000000000000000000000000000000000000000000000815250600601905060405160208183030381529060405280519060200120600660003373ffffffffffffffffffffffffffffffffffffffff1673ffffffffffffffffffffffffffffffffffffffff16815260200190815260200160002060040160405160200180828054600181600116156101000203166002900480156114925780601f10611470576101008083540402835291820191611492565b820191906000526020600020905b81548152906001019060200180831161147e575b505091505060405160208183030381529060405280519060200120146114b757600080fd5b80600660003373ffffffffffffffffffffffffffffffffffffffff1673ffffffffffffffffffffffffffffffffffffffff168152602001908152602001600020600401908051906020019061150d929190611d4d565b5050565b600260009054906101000a900473ffffffffffffffffffffffffffffffffffffffff1681565b60045481565b600260009054906101000a900473ffffffffffffffffffffffffffffffffffffffff1673ffffffffffffffffffffffffffffffffffffffff163373ffffffffffffffffffffffffffffffffffffffff161461159757600080fd5b60008090506000600190505b600154811015611673576005600083815260200190815260200160002060020154600560008381526020019081526020016000206002015411156115e5578091505b600560008381526020019081526020016000206008600082015481600001556001820181600101908054600181600116156101000203166002900461162b929190611dcd565b50600282015481600201556003820160009054906101000a900460ff168160030160006101000a81548160ff02191690831515021790555090505080806001019150506115a3565b5050565b6007602052806000526040600020600091509050806000015490806001018054600181600116156101000203166002900480601f0160208091040260200160405190810160405280929190818152602001828054600181600116156101000203166002900480156117295780601f106116fe57610100808354040283529160200191611729565b820191906000526020600020905b81548152906001019060200180831161170c57829003601f168201915b505050505090806002018054600181600116156101000203166002900480601f0160208091040260200160405190810160405280929190818152602001828054600181600116156101000203166002900480156117c75780601f1061179c576101008083540402835291602001916117c7565b820191906000526020600020905b8154815290600101906020018083116117aa57829003601f168201915b5050505050905083565b60035481565b60005481565b60066020528060005260406000206000915090508060000160009054906101000a900460ff1690806001015490806002018054600181600116156101000203166002900480601f0160208091040260200160405190810160405280929190818152602001828054600181600116156101000203166002900480156118a25780601f10611877576101008083540402835291602001916118a2565b820191906000526020600020905b81548152906001019060200180831161188557829003601f168201915b5050505050908060030160009054906101000a900460ff1690806004018054600181600116156101000203166002900480601f0160208091040260200160405190810160405280929190818152602001828054600181600116156101000203166002900480156119535780601f1061192857610100808354040283529160200191611953565b820191906000526020600020905b81548152906001019060200180831161193657829003601f168201915b5050505050908060050160009054906101000a900460ff16905086565b6008806000015490806001018054600181600116156101000203166002900480601f016020809104026020016040519081016040528092919081815260200182805460018160011615610100020316600290048015611a105780601f106119e557610100808354040283529160200191611a10565b820191906000526020600020905b8154815290600101906020018083116119f357829003601f168201915b5050505050908060020154908060030160009054906101000a900460ff16905084565b600660003373ffffffffffffffffffffffffffffffffffffffff1673ffffffffffffffffffffffffffffffffffffffff16815260200190815260200160002060000160009054906101000a900460ff1615611a8d57600080fd5b611a95611e54565b6040518060c00160405280600015158152602001600081526020018381526020016000151581526020016040518060400160405280600681526020017f646661756c7400000000000000000000000000000000000000000000000000008152508152602001600015158152509050600080815480929190600101919050555080600660003373ffffffffffffffffffffffffffffffffffffffff1673ffffffffffffffffffffffffffffffffffffffff16815260200190815260200160002060008201518160000160006101000a81548160ff021916908315150217905550602082015181600101556040820151816002019080519060200190611b9a929190611ccd565b5060608201518160030160006101000a81548160ff0219169083151502179055506080820151816004019080519060200190611bd7929190611ccd565b5060a08201518160050160006101000a81548160ff021916908315150217905550905050600054600660003373ffffffffffffffffffffffffffffffffffffffff1673ffffffffffffffffffffffffffffffffffffffff168152602001908152602001600020600101819055506001600660003373ffffffffffffffffffffffffffffffffffffffff1673ffffffffffffffffffffffffffffffffffffffff16815260200190815260200160002060000160006101000a81548160ff0219169083151502179055505050565b60405180608001604052806000815260200160608152602001600081526020016000151581525090565b828054600181600116156101000203166002900490600052602060002090601f016020900481019282601f10611d0e57805160ff1916838001178555611d3c565b82800160010185558215611d3c579182015b82811115611d3b578251825591602001919060010190611d20565b5b509050611d499190611e90565b5090565b828054600181600116156101000203166002900490600052602060002090601f016020900481019282601f10611d8e57805160ff1916838001178555611dbc565b82800160010185558215611dbc579182015b82811115611dbb578251825591602001919060010190611da0565b5b509050611dc99190611e90565b5090565b828054600181600116156101000203166002900490600052602060002090601f016020900481019282601f10611e065780548555611e43565b82800160010185558215611e4357600052602060002091601f016020900482015b82811115611e42578254825591600101919060010190611e27565b5b509050611e509190611e90565b5090565b6040518060c001604052806000151581526020016000815260200160608152602001600015158152602001606081526020016000151581525090565b611eb291905b80821115611eae576000816000905550600101611e96565b5090565b9056fea265627a7a723158209c46b71a9cda5dd2f3e7729ce596d64fe3bb96d80e9194de632298ea1011649064736f6c63430005100032",
  "source": "pragma solidity 0.5.16;\r\n\r\n// contract ElectionFactory{\r\n//     address[] public deployedElections;\r\n//     function createElection() public {\r\n//         address newElection = address( new Election(msg.sender));\r\n//         deployedElections.push(newElection);\r\n//     }\r\n//     function getDeployedElections() public view returns (address[] memory){\r\n//         return deployedElections;\r\n//     } \r\n// }\r\ncontract Election {\r\n    uint public votersCount = 0;\r\n    uint public candidatesCount= 0;\r\n    address public manager;\r\n    uint public imageCount = 0;\r\n    uint public votesCast = 0;\r\n\r\n    \r\n        \r\n    struct Candidate{\r\n        uint id;\r\n        string name;\r\n        uint voteCount;\r\n        bool exists;\r\n    }\r\n\r\n    struct Image{\r\n        uint id;\r\n        string imghash;\r\n        string description;\r\n\r\n    }\r\n\r\n    struct Voter {\r\n        bool exists;\r\n        uint id;\r\n        string name;\r\n        bool voted;\r\n        string password;\r\n        bool authenticated;\r\n    }\r\n    //mapping is key => value pairs \r\n    mapping(uint => Candidate) public candidates;\r\n    mapping(address => Voter) public voters;\r\n    mapping(uint => Image) public images;\r\n    //uint public candidateId;\r\n   \r\n    Candidate public winner;\r\n    \r\n    //sets deployer of contract as its manager\r\n    //constructor(address _manager) public {\r\n    constructor() public {\r\n    \r\n        manager = msg.sender;\r\n    }\r\n\r\n    \r\n    //restricts action to manager if used otherwise causes error\r\n    modifier restricted(){\r\n        require(msg.sender == manager);\r\n        _;\r\n    }\r\n\r\n    //manager adds candidates with default values\r\n    function addCandidate(uint _id, string memory _name) public restricted{\r\n        require(!candidates[_id].exists);\r\n        Candidate memory newCandidate = Candidate({\r\n            name: _name,\r\n            id: _id,\r\n            voteCount: 0,\r\n            exists: true\r\n        });\r\n\r\n        ++candidatesCount;\r\n\r\n        require(candidatesCount == _id);\r\n        candidates[candidatesCount] =  newCandidate;\r\n    }\r\n    \r\n    //manager adds voters with default values\r\n    function register(string memory _name) public {\r\n        require(!voters[msg.sender].exists);\r\n        \r\n        Voter memory newVoter = Voter({\r\n            exists : false,\r\n            voted: false,\r\n            name: _name,\r\n            id: 0,\r\n            password: 'dfault',\r\n            authenticated: false\r\n \r\n        });\r\n\r\n        votersCount++;\r\n        voters[msg.sender] = newVoter;\r\n        voters[msg.sender].id = votersCount;\r\n        voters[msg.sender].exists = true;\r\n    }\r\n\r\n    //lets voters set passwords\r\n    function setVoterPassword(string memory _pass) public {\r\n        require(voters[msg.sender].id!=0);\r\n        require(voters[msg.sender].exists);\r\n        require(!voters[msg.sender].authenticated);\r\n        //to check strings\r\n        require((keccak256(abi.encodePacked(voters[msg.sender].password)) == keccak256(abi.encodePacked('dfault'))));\r\n\r\n        voters[msg.sender].password = _pass;\r\n    }\r\n\r\n    //Voter authentication\r\n    function authenticate(uint _id,string memory _pass) public {\r\n        require(voters[msg.sender].exists);\r\n        require(!voters[msg.sender].voted);\r\n        require((keccak256(abi.encodePacked(voters[msg.sender].password)) == keccak256(abi.encodePacked(_pass))));\r\n        require(voters[msg.sender].id == _id);\r\n\r\n        //(keccak256(abi.encodePacked(voters[msg.sender].password)) == keccak256(abi.encodePacked(_pass)));\r\n        voters[msg.sender].authenticated = true;\r\n    }\r\n\r\n    //Voters can vote only once\r\n    function vote(uint _candidateId) public {\r\n        require(voters[msg.sender].exists);\r\n        require(voters[msg.sender].authenticated);\r\n        require(voters[msg.sender].voted == false);\r\n\r\n        voters[msg.sender].voted = true;\r\n        candidates[_candidateId].voteCount++;\r\n        votesCast++;\r\n    }\r\n\r\n    //only manager declares the winner\r\n    function finalizeResult() public restricted {\r\n        uint maxIndex = 0;\r\n        for (uint i = 1; i < candidatesCount; i++) {\r\n            if(candidates[i].voteCount > candidates[maxIndex].voteCount){\r\n                maxIndex = i;\r\n            }    \r\n        \r\n        winner = candidates[maxIndex];\r\n\r\n        }   \r\n    }\r\n\r\n    \r\n  event ImageCreated(\r\n    uint id,\r\n    string imghash,\r\n    string description\r\n  );\r\n\r\n    function uploadImage(uint _id, string memory _imgHash, string memory _description) public restricted {\r\n    // Make sure the image hash exists\r\n    require(bytes(_imgHash).length > 0);\r\n    // Make sure image description exists\r\n    require(bytes(_description).length > 0); \r\n    // Make sure uploader address exists\r\n\r\n    require(candidatesCount == imageCount+1);\r\n    // Increment image id\r\n    ++imageCount;\r\n    //require(imageCount == candidatesCount);\r\n    // Add Image to the contract\r\n    images[imageCount] = Image(_id, _imgHash, _description);\r\n    // Trigger an event\r\n    emit ImageCreated(imageCount, _imgHash, _description);\r\n  }\r\n}",
  "sourcePath": "F:/Blockchain/Election/Election/contracts/Election.sol",
  "compiler": {
    "name": "solc",
    "version": "0.5.16+commit.9c3226ce.Emscripten.clang"
  },
  "schemaVersion": "3.2.3",
  "updatedAt": "2020-11-25T13:41:41.522Z",
  "networkType": "ethereum",
  "devdoc": {
    "methods": {}
  },
  "userdoc": {
    "methods": {}
  }
}