{
  "contractName": "Election",
  "abi": [
    {
      "inputs": [],
      "payable": false,
      "stateMutability": "nonpayable",
      "type": "constructor"
    },
    {
      "constant": true,
      "inputs": [
        {
          "internalType": "uint256",
          "name": "",
          "type": "uint256"
        }
      ],
      "name": "candidates",
      "outputs": [
        {
          "internalType": "uint256",
          "name": "id",
          "type": "uint256"
        },
        {
          "internalType": "string",
          "name": "name",
          "type": "string"
        },
        {
          "internalType": "uint256",
          "name": "voteCount",
          "type": "uint256"
        }
      ],
      "payable": false,
      "stateMutability": "view",
      "type": "function"
    },
    {
      "constant": true,
      "inputs": [],
      "name": "candidatesCount",
      "outputs": [
        {
          "internalType": "uint256",
          "name": "",
          "type": "uint256"
        }
      ],
      "payable": false,
      "stateMutability": "view",
      "type": "function"
    },
    {
      "constant": true,
      "inputs": [],
      "name": "manager",
      "outputs": [
        {
          "internalType": "address",
          "name": "",
          "type": "address"
        }
      ],
      "payable": false,
      "stateMutability": "view",
      "type": "function"
    },
    {
      "constant": true,
      "inputs": [
        {
          "internalType": "address",
          "name": "",
          "type": "address"
        }
      ],
      "name": "voters",
      "outputs": [
        {
          "internalType": "bool",
          "name": "exists",
          "type": "bool"
        },
        {
          "internalType": "uint256",
          "name": "id",
          "type": "uint256"
        },
        {
          "internalType": "string",
          "name": "name",
          "type": "string"
        },
        {
          "internalType": "bool",
          "name": "voted",
          "type": "bool"
        },
        {
          "internalType": "string",
          "name": "password",
          "type": "string"
        },
        {
          "internalType": "bool",
          "name": "authenticated",
          "type": "bool"
        }
      ],
      "payable": false,
      "stateMutability": "view",
      "type": "function"
    },
    {
      "constant": true,
      "inputs": [],
      "name": "votersCount",
      "outputs": [
        {
          "internalType": "uint256",
          "name": "",
          "type": "uint256"
        }
      ],
      "payable": false,
      "stateMutability": "view",
      "type": "function"
    },
    {
      "constant": true,
      "inputs": [],
      "name": "winner",
      "outputs": [
        {
          "internalType": "uint256",
          "name": "id",
          "type": "uint256"
        },
        {
          "internalType": "string",
          "name": "name",
          "type": "string"
        },
        {
          "internalType": "uint256",
          "name": "voteCount",
          "type": "uint256"
        }
      ],
      "payable": false,
      "stateMutability": "view",
      "type": "function"
    },
    {
      "constant": false,
      "inputs": [
        {
          "internalType": "uint256",
          "name": "_id",
          "type": "uint256"
        },
        {
          "internalType": "string",
          "name": "_name",
          "type": "string"
        }
      ],
      "name": "addCandidate",
      "outputs": [],
      "payable": false,
      "stateMutability": "nonpayable",
      "type": "function"
    },
    {
      "constant": false,
      "inputs": [
        {
          "internalType": "string",
          "name": "_name",
          "type": "string"
        }
      ],
      "name": "register",
      "outputs": [],
      "payable": false,
      "stateMutability": "nonpayable",
      "type": "function"
    },
    {
      "constant": false,
      "inputs": [
        {
          "internalType": "string",
          "name": "_pass",
          "type": "string"
        }
      ],
      "name": "setVoterPassword",
      "outputs": [],
      "payable": false,
      "stateMutability": "nonpayable",
      "type": "function"
    },
    {
      "constant": false,
      "inputs": [
        {
          "internalType": "uint256",
          "name": "_id",
          "type": "uint256"
        },
        {
          "internalType": "string",
          "name": "_pass",
          "type": "string"
        }
      ],
      "name": "authenticate",
      "outputs": [],
      "payable": false,
      "stateMutability": "nonpayable",
      "type": "function"
    },
    {
      "constant": false,
      "inputs": [
        {
          "internalType": "uint256",
          "name": "_candidateId",
          "type": "uint256"
        }
      ],
      "name": "vote",
      "outputs": [],
      "payable": false,
      "stateMutability": "nonpayable",
      "type": "function"
    },
    {
      "constant": false,
      "inputs": [],
      "name": "finalizeResult",
      "outputs": [],
      "payable": false,
      "stateMutability": "nonpayable",
      "type": "function"
    }
  ],
  "bytecode": "0x608060405260008055600060015534801561001957600080fd5b5033600260006101000a81548173ffffffffffffffffffffffffffffffffffffffff021916908373ffffffffffffffffffffffffffffffffffffffff1602179055506117778061006a6000396000f3fe608060405234801561001057600080fd5b50600436106100b45760003560e01c8063481c6a7511610071578063481c6a75146103ff57806361cac4181461044957806398c0793814610453578063a3ec138d14610471578063dfbf53ae146105c2578063f2c298be14610653576100b4565b80630121b93f146100b9578063156df73a146100e75780631750a3d0146101ac5780632d35a8a2146102715780633477ee2e1461028f5780634639a6ac14610344575b600080fd5b6100e5600480360360208110156100cf57600080fd5b810190808035906020019092919050505061070e565b005b6101aa600480360360408110156100fd57600080fd5b81019080803590602001909291908035906020019064010000000081111561012457600080fd5b82018360208201111561013657600080fd5b8035906020019184600183028401116401000000008311171561015857600080fd5b91908080601f016020809104026020016040519081016040528093929190818152602001838380828437600081840152601f19601f8201169050808301925050505050505091929192905050506108a4565b005b61026f600480360360408110156101c257600080fd5b8101908080359060200190929190803590602001906401000000008111156101e957600080fd5b8201836020820111156101fb57600080fd5b8035906020019184600183028401116401000000008311171561021d57600080fd5b91908080601f016020809104026020016040519081016040528093929190818152602001838380828437600081840152601f19601f820116905080830192505050505050509192919290505050610b3b565b005b610279610c1c565b6040518082815260200191505060405180910390f35b6102bb600480360360208110156102a557600080fd5b8101908080359060200190929190505050610c22565b6040518084815260200180602001838152602001828103825284818151815260200191508051906020019080838360005b838110156103075780820151818401526020810190506102ec565b50505050905090810190601f1680156103345780820380516001836020036101000a031916815260200191505b5094505050505060405180910390f35b6103fd6004803603602081101561035a57600080fd5b810190808035906020019064010000000081111561037757600080fd5b82018360208201111561038957600080fd5b803590602001918460018302840111640100000000831117156103ab57600080fd5b91908080601f016020809104026020016040519081016040528093929190818152602001838380828437600081840152601f19601f820116905080830192505050505050509192919290505050610ce4565b005b610407610f4d565b604051808273ffffffffffffffffffffffffffffffffffffffff1673ffffffffffffffffffffffffffffffffffffffff16815260200191505060405180910390f35b610451610f73565b005b61045b611080565b6040518082815260200191505060405180910390f35b6104b36004803603602081101561048757600080fd5b81019080803573ffffffffffffffffffffffffffffffffffffffff169060200190929190505050611086565b604051808715151515815260200186815260200180602001851515151581526020018060200184151515158152602001838103835287818151815260200191508051906020019080838360005b8381101561051b578082015181840152602081019050610500565b50505050905090810190601f1680156105485780820380516001836020036101000a031916815260200191505b50838103825285818151815260200191508051906020019080838360005b83811015610581578082015181840152602081019050610566565b50505050905090810190601f1680156105ae5780820380516001836020036101000a031916815260200191505b509850505050505050505060405180910390f35b6105ca611219565b6040518084815260200180602001838152602001828103825284818151815260200191508051906020019080838360005b838110156106165780820151818401526020810190506105fb565b50505050905090810190601f1680156106435780820380516001836020036101000a031916815260200191505b5094505050505060405180910390f35b61070c6004803603602081101561066957600080fd5b810190808035906020019064010000000081111561068657600080fd5b82018360208201111561069857600080fd5b803590602001918460018302840111640100000000831117156106ba57600080fd5b91908080601f016020809104026020016040519081016040528093929190818152602001838380828437600081840152601f19601f8201169050808301925050505050505091929192905050506112c9565b005b600460003373ffffffffffffffffffffffffffffffffffffffff1673ffffffffffffffffffffffffffffffffffffffff16815260200190815260200160002060000160009054906101000a900460ff1661076757600080fd5b600460003373ffffffffffffffffffffffffffffffffffffffff1673ffffffffffffffffffffffffffffffffffffffff16815260200190815260200160002060050160009054906101000a900460ff166107c057600080fd5b60001515600460003373ffffffffffffffffffffffffffffffffffffffff1673ffffffffffffffffffffffffffffffffffffffff16815260200190815260200160002060030160009054906101000a900460ff1615151461082057600080fd5b6001600460003373ffffffffffffffffffffffffffffffffffffffff1673ffffffffffffffffffffffffffffffffffffffff16815260200190815260200160002060030160006101000a81548160ff021916908315150217905550600360008281526020019081526020016000206002016000815480929190600101919050555050565b600460003373ffffffffffffffffffffffffffffffffffffffff1673ffffffffffffffffffffffffffffffffffffffff16815260200190815260200160002060000160009054906101000a900460ff166108fd57600080fd5b600460003373ffffffffffffffffffffffffffffffffffffffff1673ffffffffffffffffffffffffffffffffffffffff16815260200190815260200160002060030160009054906101000a900460ff161561095757600080fd5b806040516020018082805190602001908083835b6020831061098e578051825260208201915060208101905060208303925061096b565b6001836020036101000a03801982511681845116808217855250505050505090500191505060405160208183030381529060405280519060200120600460003373ffffffffffffffffffffffffffffffffffffffff1673ffffffffffffffffffffffffffffffffffffffff1681526020019081526020016000206004016040516020018082805460018160011615610100020316600290048015610a695780601f10610a47576101008083540402835291820191610a69565b820191906000526020600020905b815481529060010190602001808311610a55575b50509150506040516020818303038152906040528051906020012014610a8e57600080fd5b81600460003373ffffffffffffffffffffffffffffffffffffffff1673ffffffffffffffffffffffffffffffffffffffff1681526020019081526020016000206001015414610adc57600080fd5b6001600460003373ffffffffffffffffffffffffffffffffffffffff1673ffffffffffffffffffffffffffffffffffffffff16815260200190815260200160002060050160006101000a81548160ff0219169083151502179055505050565b600260009054906101000a900473ffffffffffffffffffffffffffffffffffffffff1673ffffffffffffffffffffffffffffffffffffffff163373ffffffffffffffffffffffffffffffffffffffff1614610b9557600080fd5b610b9d611539565b60405180606001604052808481526020018381526020016000815250905060016000815480929190600101919050555080600360006001548152602001908152602001600020600082015181600001556020820151816001019080519060200190610c0992919061155a565b5060408201518160020155905050505050565b60015481565b6003602052806000526040600020600091509050806000015490806001018054600181600116156101000203166002900480601f016020809104026020016040519081016040528092919081815260200182805460018160011615610100020316600290048015610cd45780601f10610ca957610100808354040283529160200191610cd4565b820191906000526020600020905b815481529060010190602001808311610cb757829003601f168201915b5050505050908060020154905083565b6000600460003373ffffffffffffffffffffffffffffffffffffffff1673ffffffffffffffffffffffffffffffffffffffff168152602001908152602001600020600101541415610d3457600080fd5b600460003373ffffffffffffffffffffffffffffffffffffffff1673ffffffffffffffffffffffffffffffffffffffff16815260200190815260200160002060000160009054906101000a900460ff16610d8d57600080fd5b600460003373ffffffffffffffffffffffffffffffffffffffff1673ffffffffffffffffffffffffffffffffffffffff16815260200190815260200160002060050160009054906101000a900460ff1615610de757600080fd5b60405160200180807f646661756c740000000000000000000000000000000000000000000000000000815250600601905060405160208183030381529060405280519060200120600460003373ffffffffffffffffffffffffffffffffffffffff1673ffffffffffffffffffffffffffffffffffffffff1681526020019081526020016000206004016040516020018082805460018160011615610100020316600290048015610ece5780601f10610eac576101008083540402835291820191610ece565b820191906000526020600020905b815481529060010190602001808311610eba575b50509150506040516020818303038152906040528051906020012014610ef357600080fd5b80600460003373ffffffffffffffffffffffffffffffffffffffff1673ffffffffffffffffffffffffffffffffffffffff1681526020019081526020016000206004019080519060200190610f499291906115da565b5050565b600260009054906101000a900473ffffffffffffffffffffffffffffffffffffffff1681565b600260009054906101000a900473ffffffffffffffffffffffffffffffffffffffff1673ffffffffffffffffffffffffffffffffffffffff163373ffffffffffffffffffffffffffffffffffffffff1614610fcd57600080fd5b60008090506000600190505b60015481101561107c5760036000838152602001908152602001600020600201546003600083815260200190815260200160002060020154111561101b578091505b600360008381526020019081526020016000206005600082015481600001556001820181600101908054600181600116156101000203166002900461106192919061165a565b50600282015481600201559050508080600101915050610fd9565b5050565b60005481565b60046020528060005260406000206000915090508060000160009054906101000a900460ff1690806001015490806002018054600181600116156101000203166002900480601f01602080910402602001604051908101604052809291908181526020018280546001816001161561010002031660029004801561114b5780601f106111205761010080835404028352916020019161114b565b820191906000526020600020905b81548152906001019060200180831161112e57829003601f168201915b5050505050908060030160009054906101000a900460ff1690806004018054600181600116156101000203166002900480601f0160208091040260200160405190810160405280929190818152602001828054600181600116156101000203166002900480156111fc5780601f106111d1576101008083540402835291602001916111fc565b820191906000526020600020905b8154815290600101906020018083116111df57829003601f168201915b5050505050908060050160009054906101000a900460ff16905086565b6005806000015490806001018054600181600116156101000203166002900480601f0160208091040260200160405190810160405280929190818152602001828054600181600116156101000203166002900480156112b95780601f1061128e576101008083540402835291602001916112b9565b820191906000526020600020905b81548152906001019060200180831161129c57829003601f168201915b5050505050908060020154905083565b600460003373ffffffffffffffffffffffffffffffffffffffff1673ffffffffffffffffffffffffffffffffffffffff16815260200190815260200160002060000160009054906101000a900460ff161561132357600080fd5b61132b6116e1565b6040518060c00160405280600015158152602001600081526020018381526020016000151581526020016040518060400160405280600681526020017f646661756c7400000000000000000000000000000000000000000000000000008152508152602001600015158152509050600080815480929190600101919050555080600460003373ffffffffffffffffffffffffffffffffffffffff1673ffffffffffffffffffffffffffffffffffffffff16815260200190815260200160002060008201518160000160006101000a81548160ff02191690831515021790555060208201518160010155604082015181600201908051906020019061143092919061155a565b5060608201518160030160006101000a81548160ff021916908315150217905550608082015181600401908051906020019061146d92919061155a565b5060a08201518160050160006101000a81548160ff021916908315150217905550905050600054600460003373ffffffffffffffffffffffffffffffffffffffff1673ffffffffffffffffffffffffffffffffffffffff168152602001908152602001600020600101819055506001600460003373ffffffffffffffffffffffffffffffffffffffff1673ffffffffffffffffffffffffffffffffffffffff16815260200190815260200160002060000160006101000a81548160ff0219169083151502179055505050565b60405180606001604052806000815260200160608152602001600081525090565b828054600181600116156101000203166002900490600052602060002090601f016020900481019282601f1061159b57805160ff19168380011785556115c9565b828001600101855582156115c9579182015b828111156115c85782518255916020019190600101906115ad565b5b5090506115d6919061171d565b5090565b828054600181600116156101000203166002900490600052602060002090601f016020900481019282601f1061161b57805160ff1916838001178555611649565b82800160010185558215611649579182015b8281111561164857825182559160200191906001019061162d565b5b509050611656919061171d565b5090565b828054600181600116156101000203166002900490600052602060002090601f016020900481019282601f1061169357805485556116d0565b828001600101855582156116d057600052602060002091601f016020900482015b828111156116cf5782548255916001019190600101906116b4565b5b5090506116dd919061171d565b5090565b6040518060c001604052806000151581526020016000815260200160608152602001600015158152602001606081526020016000151581525090565b61173f91905b8082111561173b576000816000905550600101611723565b5090565b9056fea265627a7a723158202790f865023a203f09ea4f031bc33ff39309d11237e4d60201eb0b2fc66224ed64736f6c63430005100032",
  "source": "pragma solidity 0.5.16;\r\n\r\n// contract ElectionFactory{\r\n//     address[] public deployedElections;\r\n//     function createElection() public {\r\n//         address newElection = address( new Election(msg.sender));\r\n//         deployedElections.push(newElection);\r\n//     }\r\n//     function getDeployedElections() public view returns (address[] memory){\r\n//         return deployedElections;\r\n//     } \r\n// }\r\ncontract Election {\r\n    uint public votersCount = 0;\r\n    uint public candidatesCount= 0;\r\n    address public manager;\r\n        \r\n    struct Candidate{\r\n        uint id;\r\n        string name;\r\n        uint voteCount;\r\n    }\r\n\r\n    struct Voter {\r\n        bool exists;\r\n        uint id;\r\n        string name;\r\n        bool voted;\r\n        string password;\r\n        bool authenticated;\r\n    }\r\n    //mapping is key => value pairs \r\n    mapping(uint => Candidate) public candidates;\r\n    mapping(address => Voter) public voters;\r\n    \r\n    //uint public candidateId;\r\n   \r\n    Candidate public winner;\r\n    \r\n    //sets deployer of contract as its manager\r\n    //constructor(address _manager) public {\r\n    constructor() public {\r\n    \r\n        manager = msg.sender;\r\n    }\r\n\r\n    \r\n    //restricts action to manager if used otherwise causes error\r\n    modifier restricted(){\r\n        require(msg.sender == manager);\r\n        _;\r\n    }\r\n\r\n    //manager adds candidates with default values\r\n    function addCandidate(uint _id, string memory _name) public restricted{\r\n        Candidate memory newCandidate = Candidate({\r\n            name: _name,\r\n            id: _id,\r\n            voteCount: 0\r\n        });\r\n\r\n        candidatesCount++;\r\n        candidates[candidatesCount] =  newCandidate;\r\n    }\r\n    \r\n    //manager adds voters with default values\r\n    function register(string memory _name) public {\r\n        require(!voters[msg.sender].exists);\r\n        \r\n        Voter memory newVoter = Voter({\r\n            exists : false,\r\n            voted: false,\r\n            name: _name,\r\n            id: 0,\r\n            password: 'dfault',\r\n            authenticated: false\r\n \r\n        });\r\n\r\n        votersCount++;\r\n        voters[msg.sender] = newVoter;\r\n        voters[msg.sender].id = votersCount;\r\n        voters[msg.sender].exists = true;\r\n    }\r\n\r\n    //lets voters set passwords\r\n    function setVoterPassword(string memory _pass) public {\r\n        require(voters[msg.sender].id!=0);\r\n        require(voters[msg.sender].exists);\r\n        require(!voters[msg.sender].authenticated);\r\n        //to check strings\r\n        require((keccak256(abi.encodePacked(voters[msg.sender].password)) == keccak256(abi.encodePacked('dfault'))));\r\n\r\n        voters[msg.sender].password = _pass;\r\n    }\r\n\r\n    //Voter authentication\r\n    function authenticate(uint _id,string memory _pass) public {\r\n        require(voters[msg.sender].exists);\r\n        require(!voters[msg.sender].voted);\r\n        require((keccak256(abi.encodePacked(voters[msg.sender].password)) == keccak256(abi.encodePacked(_pass))));\r\n        require(voters[msg.sender].id == _id);\r\n\r\n        //(keccak256(abi.encodePacked(voters[msg.sender].password)) == keccak256(abi.encodePacked(_pass)));\r\n        voters[msg.sender].authenticated = true;\r\n    }\r\n\r\n    //Voters can vote only once\r\n    function vote(uint _candidateId) public {\r\n        require(voters[msg.sender].exists);\r\n        require(voters[msg.sender].authenticated);\r\n        require(voters[msg.sender].voted == false);\r\n\r\n        voters[msg.sender].voted = true;\r\n        candidates[_candidateId].voteCount++;\r\n\r\n    }\r\n\r\n    //only manager declares the winner\r\n    function finalizeResult() public restricted {\r\n        uint maxIndex = 0;\r\n        for (uint i = 1; i < candidatesCount; i++) {\r\n            if(candidates[i].voteCount > candidates[maxIndex].voteCount){\r\n                maxIndex = i;\r\n            }    \r\n        \r\n        winner = candidates[maxIndex];\r\n\r\n        }   \r\n    }\r\n    \r\n       \r\n}",
  "sourcePath": "F:/Blockchain/Election/Election/contracts/Election.sol",
  "compiler": {
    "name": "solc",
    "version": "0.5.16+commit.9c3226ce.Emscripten.clang"
  },
  "schemaVersion": "3.2.3",
  "updatedAt": "2020-11-11T19:30:02.806Z",
  "networkType": "ethereum",
  "devdoc": {
    "methods": {}
  },
  "userdoc": {
    "methods": {}
  }
}