{
  "contractName": "Election",
  "abi": [
    {
      "inputs": [],
      "payable": false,
      "stateMutability": "nonpayable",
      "type": "constructor"
    },
    {
      "anonymous": false,
      "inputs": [
        {
          "indexed": false,
          "internalType": "uint256",
          "name": "id",
          "type": "uint256"
        },
        {
          "indexed": false,
          "internalType": "string",
          "name": "imghash",
          "type": "string"
        },
        {
          "indexed": false,
          "internalType": "string",
          "name": "description",
          "type": "string"
        }
      ],
      "name": "ImageCreated",
      "type": "event"
    },
    {
      "constant": true,
      "inputs": [
        {
          "internalType": "uint256",
          "name": "",
          "type": "uint256"
        }
      ],
      "name": "candidates",
      "outputs": [
        {
          "internalType": "uint256",
          "name": "id",
          "type": "uint256"
        },
        {
          "internalType": "string",
          "name": "name",
          "type": "string"
        },
        {
          "internalType": "uint256",
          "name": "voteCount",
          "type": "uint256"
        },
        {
          "internalType": "bool",
          "name": "exists",
          "type": "bool"
        }
      ],
      "payable": false,
      "stateMutability": "view",
      "type": "function"
    },
    {
      "constant": true,
      "inputs": [],
      "name": "candidatesCount",
      "outputs": [
        {
          "internalType": "uint256",
          "name": "",
          "type": "uint256"
        }
      ],
      "payable": false,
      "stateMutability": "view",
      "type": "function"
    },
    {
      "constant": true,
      "inputs": [],
      "name": "imageCount",
      "outputs": [
        {
          "internalType": "uint256",
          "name": "",
          "type": "uint256"
        }
      ],
      "payable": false,
      "stateMutability": "view",
      "type": "function"
    },
    {
      "constant": true,
      "inputs": [
        {
          "internalType": "uint256",
          "name": "",
          "type": "uint256"
        }
      ],
      "name": "images",
      "outputs": [
        {
          "internalType": "uint256",
          "name": "id",
          "type": "uint256"
        },
        {
          "internalType": "string",
          "name": "imghash",
          "type": "string"
        },
        {
          "internalType": "string",
          "name": "description",
          "type": "string"
        }
      ],
      "payable": false,
      "stateMutability": "view",
      "type": "function"
    },
    {
      "constant": true,
      "inputs": [],
      "name": "manager",
      "outputs": [
        {
          "internalType": "address",
          "name": "",
          "type": "address"
        }
      ],
      "payable": false,
      "stateMutability": "view",
      "type": "function"
    },
    {
      "constant": true,
      "inputs": [
        {
          "internalType": "address",
          "name": "",
          "type": "address"
        }
      ],
      "name": "voters",
      "outputs": [
        {
          "internalType": "bool",
          "name": "exists",
          "type": "bool"
        },
        {
          "internalType": "uint256",
          "name": "id",
          "type": "uint256"
        },
        {
          "internalType": "string",
          "name": "name",
          "type": "string"
        },
        {
          "internalType": "bool",
          "name": "voted",
          "type": "bool"
        },
        {
          "internalType": "string",
          "name": "password",
          "type": "string"
        },
        {
          "internalType": "bool",
          "name": "authenticated",
          "type": "bool"
        }
      ],
      "payable": false,
      "stateMutability": "view",
      "type": "function"
    },
    {
      "constant": true,
      "inputs": [],
      "name": "votersCount",
      "outputs": [
        {
          "internalType": "uint256",
          "name": "",
          "type": "uint256"
        }
      ],
      "payable": false,
      "stateMutability": "view",
      "type": "function"
    },
    {
      "constant": true,
      "inputs": [],
      "name": "winner",
      "outputs": [
        {
          "internalType": "uint256",
          "name": "id",
          "type": "uint256"
        },
        {
          "internalType": "string",
          "name": "name",
          "type": "string"
        },
        {
          "internalType": "uint256",
          "name": "voteCount",
          "type": "uint256"
        },
        {
          "internalType": "bool",
          "name": "exists",
          "type": "bool"
        }
      ],
      "payable": false,
      "stateMutability": "view",
      "type": "function"
    },
    {
      "constant": false,
      "inputs": [
        {
          "internalType": "uint256",
          "name": "_id",
          "type": "uint256"
        },
        {
          "internalType": "string",
          "name": "_name",
          "type": "string"
        }
      ],
      "name": "addCandidate",
      "outputs": [],
      "payable": false,
      "stateMutability": "nonpayable",
      "type": "function"
    },
    {
      "constant": false,
      "inputs": [
        {
          "internalType": "string",
          "name": "_name",
          "type": "string"
        }
      ],
      "name": "register",
      "outputs": [],
      "payable": false,
      "stateMutability": "nonpayable",
      "type": "function"
    },
    {
      "constant": false,
      "inputs": [
        {
          "internalType": "string",
          "name": "_pass",
          "type": "string"
        }
      ],
      "name": "setVoterPassword",
      "outputs": [],
      "payable": false,
      "stateMutability": "nonpayable",
      "type": "function"
    },
    {
      "constant": false,
      "inputs": [
        {
          "internalType": "uint256",
          "name": "_id",
          "type": "uint256"
        },
        {
          "internalType": "string",
          "name": "_pass",
          "type": "string"
        }
      ],
      "name": "authenticate",
      "outputs": [],
      "payable": false,
      "stateMutability": "nonpayable",
      "type": "function"
    },
    {
      "constant": false,
      "inputs": [
        {
          "internalType": "uint256",
          "name": "_candidateId",
          "type": "uint256"
        }
      ],
      "name": "vote",
      "outputs": [],
      "payable": false,
      "stateMutability": "nonpayable",
      "type": "function"
    },
    {
      "constant": false,
      "inputs": [],
      "name": "finalizeResult",
      "outputs": [],
      "payable": false,
      "stateMutability": "nonpayable",
      "type": "function"
    },
    {
      "constant": false,
      "inputs": [
        {
          "internalType": "string",
          "name": "_imgHash",
          "type": "string"
        },
        {
          "internalType": "string",
          "name": "_description",
          "type": "string"
        }
      ],
      "name": "uploadImage",
      "outputs": [],
      "payable": false,
      "stateMutability": "nonpayable",
      "type": "function"
    }
  ],
  "bytecode": "0x6080604052600080556000600155600060035534801561001e57600080fd5b5033600260006101000a81548173ffffffffffffffffffffffffffffffffffffffff021916908373ffffffffffffffffffffffffffffffffffffffff160217905550611e968061006f6000396000f3fe608060405234801561001057600080fd5b50600436106100f55760003560e01c806361cac41811610097578063a3ec138d11610066578063a3ec138d146105f5578063a91b831414610746578063dfbf53ae14610898578063f2c298be14610934576100f5565b806361cac41814610495578063848564821461049f57806392053b63146105b957806398c07938146105d7576100f5565b80632d35a8a2116100d35780632d35a8a2146102b25780633477ee2e146102d05780634639a6ac14610390578063481c6a751461044b576100f5565b80630121b93f146100fa578063156df73a146101285780631750a3d0146101ed575b600080fd5b6101266004803603602081101561011057600080fd5b81019080803590602001909291905050506109ef565b005b6101eb6004803603604081101561013e57600080fd5b81019080803590602001909291908035906020019064010000000081111561016557600080fd5b82018360208201111561017757600080fd5b8035906020019184600183028401116401000000008311171561019957600080fd5b91908080601f016020809104026020016040519081016040528093929190818152602001838380828437600081840152601f19601f820116905080830192505050505050509192919290505050610b85565b005b6102b06004803603604081101561020357600080fd5b81019080803590602001909291908035906020019064010000000081111561022a57600080fd5b82018360208201111561023c57600080fd5b8035906020019184600183028401116401000000008311171561025e57600080fd5b91908080601f016020809104026020016040519081016040528093929190818152602001838380828437600081840152601f19601f820116905080830192505050505050509192919290505050610e1c565b005b6102ba610f54565b6040518082815260200191505060405180910390f35b6102fc600480360360208110156102e657600080fd5b8101908080359060200190929190505050610f5a565b604051808581526020018060200184815260200183151515158152602001828103825285818151815260200191508051906020019080838360005b83811015610352578082015181840152602081019050610337565b50505050905090810190601f16801561037f5780820380516001836020036101000a031916815260200191505b509550505050505060405180910390f35b610449600480360360208110156103a657600080fd5b81019080803590602001906401000000008111156103c357600080fd5b8201836020820111156103d557600080fd5b803590602001918460018302840111640100000000831117156103f757600080fd5b91908080601f016020809104026020016040519081016040528093929190818152602001838380828437600081840152601f19601f82011690508083019250505050505050919291929050505061102f565b005b610453611298565b604051808273ffffffffffffffffffffffffffffffffffffffff1673ffffffffffffffffffffffffffffffffffffffff16815260200191505060405180910390f35b61049d6112be565b005b6104cb600480360360208110156104b557600080fd5b81019080803590602001909291905050506113f8565b604051808481526020018060200180602001838103835285818151815260200191508051906020019080838360005b838110156105155780820151818401526020810190506104fa565b50505050905090810190601f1680156105425780820380516001836020036101000a031916815260200191505b50838103825284818151815260200191508051906020019080838360005b8381101561057b578082015181840152602081019050610560565b50505050905090810190601f1680156105a85780820380516001836020036101000a031916815260200191505b509550505050505060405180910390f35b6105c1611552565b6040518082815260200191505060405180910390f35b6105df611558565b6040518082815260200191505060405180910390f35b6106376004803603602081101561060b57600080fd5b81019080803573ffffffffffffffffffffffffffffffffffffffff16906020019092919050505061155e565b604051808715151515815260200186815260200180602001851515151581526020018060200184151515158152602001838103835287818151815260200191508051906020019080838360005b8381101561069f578082015181840152602081019050610684565b50505050905090810190601f1680156106cc5780820380516001836020036101000a031916815260200191505b50838103825285818151815260200191508051906020019080838360005b838110156107055780820151818401526020810190506106ea565b50505050905090810190601f1680156107325780820380516001836020036101000a031916815260200191505b509850505050505050505060405180910390f35b6108966004803603604081101561075c57600080fd5b810190808035906020019064010000000081111561077957600080fd5b82018360208201111561078b57600080fd5b803590602001918460018302840111640100000000831117156107ad57600080fd5b91908080601f016020809104026020016040519081016040528093929190818152602001838380828437600081840152601f19601f8201169050808301925050505050505091929192908035906020019064010000000081111561081057600080fd5b82018360208201111561082257600080fd5b8035906020019184600183028401116401000000008311171561084457600080fd5b91908080601f016020809104026020016040519081016040528093929190818152602001838380828437600081840152601f19601f8201169050808301925050505050505091929192905050506116f1565b005b6108a061191c565b604051808581526020018060200184815260200183151515158152602001828103825285818151815260200191508051906020019080838360005b838110156108f65780820151818401526020810190506108db565b50505050905090810190601f1680156109235780820380516001836020036101000a031916815260200191505b509550505050505060405180910390f35b6109ed6004803603602081101561094a57600080fd5b810190808035906020019064010000000081111561096757600080fd5b82018360208201111561097957600080fd5b8035906020019184600183028401116401000000008311171561099b57600080fd5b91908080601f016020809104026020016040519081016040528093929190818152602001838380828437600081840152601f19601f8201169050808301925050505050505091929192905050506119df565b005b600560003373ffffffffffffffffffffffffffffffffffffffff1673ffffffffffffffffffffffffffffffffffffffff16815260200190815260200160002060000160009054906101000a900460ff16610a4857600080fd5b600560003373ffffffffffffffffffffffffffffffffffffffff1673ffffffffffffffffffffffffffffffffffffffff16815260200190815260200160002060050160009054906101000a900460ff16610aa157600080fd5b60001515600560003373ffffffffffffffffffffffffffffffffffffffff1673ffffffffffffffffffffffffffffffffffffffff16815260200190815260200160002060030160009054906101000a900460ff16151514610b0157600080fd5b6001600560003373ffffffffffffffffffffffffffffffffffffffff1673ffffffffffffffffffffffffffffffffffffffff16815260200190815260200160002060030160006101000a81548160ff021916908315150217905550600460008281526020019081526020016000206002016000815480929190600101919050555050565b600560003373ffffffffffffffffffffffffffffffffffffffff1673ffffffffffffffffffffffffffffffffffffffff16815260200190815260200160002060000160009054906101000a900460ff16610bde57600080fd5b600560003373ffffffffffffffffffffffffffffffffffffffff1673ffffffffffffffffffffffffffffffffffffffff16815260200190815260200160002060030160009054906101000a900460ff1615610c3857600080fd5b806040516020018082805190602001908083835b60208310610c6f5780518252602082019150602081019050602083039250610c4c565b6001836020036101000a03801982511681845116808217855250505050505090500191505060405160208183030381529060405280519060200120600560003373ffffffffffffffffffffffffffffffffffffffff1673ffffffffffffffffffffffffffffffffffffffff1681526020019081526020016000206004016040516020018082805460018160011615610100020316600290048015610d4a5780601f10610d28576101008083540402835291820191610d4a565b820191906000526020600020905b815481529060010190602001808311610d36575b50509150506040516020818303038152906040528051906020012014610d6f57600080fd5b81600560003373ffffffffffffffffffffffffffffffffffffffff1673ffffffffffffffffffffffffffffffffffffffff1681526020019081526020016000206001015414610dbd57600080fd5b6001600560003373ffffffffffffffffffffffffffffffffffffffff1673ffffffffffffffffffffffffffffffffffffffff16815260200190815260200160002060050160006101000a81548160ff0219169083151502179055505050565b600260009054906101000a900473ffffffffffffffffffffffffffffffffffffffff1673ffffffffffffffffffffffffffffffffffffffff163373ffffffffffffffffffffffffffffffffffffffff1614610e7657600080fd5b6004600083815260200190815260200160002060030160009054906101000a900460ff1615610ea457600080fd5b610eac611c4f565b60405180608001604052808481526020018381526020016000815260200160011515815250905060016000815480929190600101919050555080600460006001548152602001908152602001600020600082015181600001556020820151816001019080519060200190610f21929190611c79565b506040820151816002015560608201518160030160006101000a81548160ff021916908315150217905550905050505050565b60015481565b6004602052806000526040600020600091509050806000015490806001018054600181600116156101000203166002900480601f01602080910402602001604051908101604052809291908181526020018280546001816001161561010002031660029004801561100c5780601f10610fe15761010080835404028352916020019161100c565b820191906000526020600020905b815481529060010190602001808311610fef57829003601f168201915b5050505050908060020154908060030160009054906101000a900460ff16905084565b6000600560003373ffffffffffffffffffffffffffffffffffffffff1673ffffffffffffffffffffffffffffffffffffffff16815260200190815260200160002060010154141561107f57600080fd5b600560003373ffffffffffffffffffffffffffffffffffffffff1673ffffffffffffffffffffffffffffffffffffffff16815260200190815260200160002060000160009054906101000a900460ff166110d857600080fd5b600560003373ffffffffffffffffffffffffffffffffffffffff1673ffffffffffffffffffffffffffffffffffffffff16815260200190815260200160002060050160009054906101000a900460ff161561113257600080fd5b60405160200180807f646661756c740000000000000000000000000000000000000000000000000000815250600601905060405160208183030381529060405280519060200120600560003373ffffffffffffffffffffffffffffffffffffffff1673ffffffffffffffffffffffffffffffffffffffff16815260200190815260200160002060040160405160200180828054600181600116156101000203166002900480156112195780601f106111f7576101008083540402835291820191611219565b820191906000526020600020905b815481529060010190602001808311611205575b5050915050604051602081830303815290604052805190602001201461123e57600080fd5b80600560003373ffffffffffffffffffffffffffffffffffffffff1673ffffffffffffffffffffffffffffffffffffffff1681526020019081526020016000206004019080519060200190611294929190611cf9565b5050565b600260009054906101000a900473ffffffffffffffffffffffffffffffffffffffff1681565b600260009054906101000a900473ffffffffffffffffffffffffffffffffffffffff1673ffffffffffffffffffffffffffffffffffffffff163373ffffffffffffffffffffffffffffffffffffffff161461131857600080fd5b60008090506000600190505b6001548110156113f457600460008381526020019081526020016000206002015460046000838152602001908152602001600020600201541115611366578091505b60046000838152602001908152602001600020600760008201548160000155600182018160010190805460018160011615610100020316600290046113ac929190611d79565b50600282015481600201556003820160009054906101000a900460ff168160030160006101000a81548160ff0219169083151502179055509050508080600101915050611324565b5050565b6006602052806000526040600020600091509050806000015490806001018054600181600116156101000203166002900480601f0160208091040260200160405190810160405280929190818152602001828054600181600116156101000203166002900480156114aa5780601f1061147f576101008083540402835291602001916114aa565b820191906000526020600020905b81548152906001019060200180831161148d57829003601f168201915b505050505090806002018054600181600116156101000203166002900480601f0160208091040260200160405190810160405280929190818152602001828054600181600116156101000203166002900480156115485780601f1061151d57610100808354040283529160200191611548565b820191906000526020600020905b81548152906001019060200180831161152b57829003601f168201915b5050505050905083565b60035481565b60005481565b60056020528060005260406000206000915090508060000160009054906101000a900460ff1690806001015490806002018054600181600116156101000203166002900480601f0160208091040260200160405190810160405280929190818152602001828054600181600116156101000203166002900480156116235780601f106115f857610100808354040283529160200191611623565b820191906000526020600020905b81548152906001019060200180831161160657829003601f168201915b5050505050908060030160009054906101000a900460ff1690806004018054600181600116156101000203166002900480601f0160208091040260200160405190810160405280929190818152602001828054600181600116156101000203166002900480156116d45780601f106116a9576101008083540402835291602001916116d4565b820191906000526020600020905b8154815290600101906020018083116116b757829003601f168201915b5050505050908060050160009054906101000a900460ff16905086565b600260009054906101000a900473ffffffffffffffffffffffffffffffffffffffff1673ffffffffffffffffffffffffffffffffffffffff163373ffffffffffffffffffffffffffffffffffffffff161461174b57600080fd5b600082511161175957600080fd5b600081511161176757600080fd5b6001600354016001541461177a57600080fd5b60036000815480929190600101919050555060405180606001604052806003548152602001838152602001828152506006600060035481526020019081526020016000206000820151816000015560208201518160010190805190602001906117e4929190611c79565b506040820151816002019080519060200190611801929190611c79565b509050507f640774224f0df7bbcf12f2b98b83311e0901c56985416fec1d91705f2829338e6003548383604051808481526020018060200180602001838103835285818151815260200191508051906020019080838360005b8381101561187557808201518184015260208101905061185a565b50505050905090810190601f1680156118a25780820380516001836020036101000a031916815260200191505b50838103825284818151815260200191508051906020019080838360005b838110156118db5780820151818401526020810190506118c0565b50505050905090810190601f1680156119085780820380516001836020036101000a031916815260200191505b509550505050505060405180910390a15050565b6007806000015490806001018054600181600116156101000203166002900480601f0160208091040260200160405190810160405280929190818152602001828054600181600116156101000203166002900480156119bc5780601f10611991576101008083540402835291602001916119bc565b820191906000526020600020905b81548152906001019060200180831161199f57829003601f168201915b5050505050908060020154908060030160009054906101000a900460ff16905084565b600560003373ffffffffffffffffffffffffffffffffffffffff1673ffffffffffffffffffffffffffffffffffffffff16815260200190815260200160002060000160009054906101000a900460ff1615611a3957600080fd5b611a41611e00565b6040518060c00160405280600015158152602001600081526020018381526020016000151581526020016040518060400160405280600681526020017f646661756c7400000000000000000000000000000000000000000000000000008152508152602001600015158152509050600080815480929190600101919050555080600560003373ffffffffffffffffffffffffffffffffffffffff1673ffffffffffffffffffffffffffffffffffffffff16815260200190815260200160002060008201518160000160006101000a81548160ff021916908315150217905550602082015181600101556040820151816002019080519060200190611b46929190611c79565b5060608201518160030160006101000a81548160ff0219169083151502179055506080820151816004019080519060200190611b83929190611c79565b5060a08201518160050160006101000a81548160ff021916908315150217905550905050600054600560003373ffffffffffffffffffffffffffffffffffffffff1673ffffffffffffffffffffffffffffffffffffffff168152602001908152602001600020600101819055506001600560003373ffffffffffffffffffffffffffffffffffffffff1673ffffffffffffffffffffffffffffffffffffffff16815260200190815260200160002060000160006101000a81548160ff0219169083151502179055505050565b60405180608001604052806000815260200160608152602001600081526020016000151581525090565b828054600181600116156101000203166002900490600052602060002090601f016020900481019282601f10611cba57805160ff1916838001178555611ce8565b82800160010185558215611ce8579182015b82811115611ce7578251825591602001919060010190611ccc565b5b509050611cf59190611e3c565b5090565b828054600181600116156101000203166002900490600052602060002090601f016020900481019282601f10611d3a57805160ff1916838001178555611d68565b82800160010185558215611d68579182015b82811115611d67578251825591602001919060010190611d4c565b5b509050611d759190611e3c565b5090565b828054600181600116156101000203166002900490600052602060002090601f016020900481019282601f10611db25780548555611def565b82800160010185558215611def57600052602060002091601f016020900482015b82811115611dee578254825591600101919060010190611dd3565b5b509050611dfc9190611e3c565b5090565b6040518060c001604052806000151581526020016000815260200160608152602001600015158152602001606081526020016000151581525090565b611e5e91905b80821115611e5a576000816000905550600101611e42565b5090565b9056fea265627a7a72315820a289438d6cf52a4b51a864d93d47e3bf8d9d54bd56f9c0ca67d8ba0d8bfe76d364736f6c63430005100032",
  "source": "pragma solidity 0.5.16;\r\n\r\n// contract ElectionFactory{\r\n//     address[] public deployedElections;\r\n//     function createElection() public {\r\n//         address newElection = address( new Election(msg.sender));\r\n//         deployedElections.push(newElection);\r\n//     }\r\n//     function getDeployedElections() public view returns (address[] memory){\r\n//         return deployedElections;\r\n//     } \r\n// }\r\ncontract Election {\r\n    uint public votersCount = 0;\r\n    uint public candidatesCount= 0;\r\n    address public manager;\r\n    uint public imageCount = 0;\r\n\r\n    \r\n        \r\n    struct Candidate{\r\n        uint id;\r\n        string name;\r\n        uint voteCount;\r\n        bool exists;\r\n    }\r\n\r\n    struct Image{\r\n        uint id;\r\n        string imghash;\r\n        string description;\r\n\r\n    }\r\n\r\n    struct Voter {\r\n        bool exists;\r\n        uint id;\r\n        string name;\r\n        bool voted;\r\n        string password;\r\n        bool authenticated;\r\n    }\r\n    //mapping is key => value pairs \r\n    mapping(uint => Candidate) public candidates;\r\n    mapping(address => Voter) public voters;\r\n    mapping(uint => Image) public images;\r\n    //uint public candidateId;\r\n   \r\n    Candidate public winner;\r\n    \r\n    //sets deployer of contract as its manager\r\n    //constructor(address _manager) public {\r\n    constructor() public {\r\n    \r\n        manager = msg.sender;\r\n    }\r\n\r\n    \r\n    //restricts action to manager if used otherwise causes error\r\n    modifier restricted(){\r\n        require(msg.sender == manager);\r\n        _;\r\n    }\r\n\r\n    //manager adds candidates with default values\r\n    function addCandidate(uint _id, string memory _name) public restricted{\r\n        require(!candidates[_id].exists);\r\n        Candidate memory newCandidate = Candidate({\r\n            name: _name,\r\n            id: _id,\r\n            voteCount: 0,\r\n            exists: true\r\n        });\r\n\r\n        candidatesCount++;\r\n        candidates[candidatesCount] =  newCandidate;\r\n    }\r\n    \r\n    //manager adds voters with default values\r\n    function register(string memory _name) public {\r\n        require(!voters[msg.sender].exists);\r\n        \r\n        Voter memory newVoter = Voter({\r\n            exists : false,\r\n            voted: false,\r\n            name: _name,\r\n            id: 0,\r\n            password: 'dfault',\r\n            authenticated: false\r\n \r\n        });\r\n\r\n        votersCount++;\r\n        voters[msg.sender] = newVoter;\r\n        voters[msg.sender].id = votersCount;\r\n        voters[msg.sender].exists = true;\r\n    }\r\n\r\n    //lets voters set passwords\r\n    function setVoterPassword(string memory _pass) public {\r\n        require(voters[msg.sender].id!=0);\r\n        require(voters[msg.sender].exists);\r\n        require(!voters[msg.sender].authenticated);\r\n        //to check strings\r\n        require((keccak256(abi.encodePacked(voters[msg.sender].password)) == keccak256(abi.encodePacked('dfault'))));\r\n\r\n        voters[msg.sender].password = _pass;\r\n    }\r\n\r\n    //Voter authentication\r\n    function authenticate(uint _id,string memory _pass) public {\r\n        require(voters[msg.sender].exists);\r\n        require(!voters[msg.sender].voted);\r\n        require((keccak256(abi.encodePacked(voters[msg.sender].password)) == keccak256(abi.encodePacked(_pass))));\r\n        require(voters[msg.sender].id == _id);\r\n\r\n        //(keccak256(abi.encodePacked(voters[msg.sender].password)) == keccak256(abi.encodePacked(_pass)));\r\n        voters[msg.sender].authenticated = true;\r\n    }\r\n\r\n    //Voters can vote only once\r\n    function vote(uint _candidateId) public {\r\n        require(voters[msg.sender].exists);\r\n        require(voters[msg.sender].authenticated);\r\n        require(voters[msg.sender].voted == false);\r\n\r\n        voters[msg.sender].voted = true;\r\n        candidates[_candidateId].voteCount++;\r\n\r\n    }\r\n\r\n    //only manager declares the winner\r\n    function finalizeResult() public restricted {\r\n        uint maxIndex = 0;\r\n        for (uint i = 1; i < candidatesCount; i++) {\r\n            if(candidates[i].voteCount > candidates[maxIndex].voteCount){\r\n                maxIndex = i;\r\n            }    \r\n        \r\n        winner = candidates[maxIndex];\r\n\r\n        }   \r\n    }\r\n\r\n    \r\n  event ImageCreated(\r\n    uint id,\r\n    string imghash,\r\n    string description\r\n  );\r\n\r\n    function uploadImage(string memory _imgHash, string memory _description) public restricted {\r\n    // Make sure the image hash exists\r\n    require(bytes(_imgHash).length > 0);\r\n    // Make sure image description exists\r\n    require(bytes(_description).length > 0); \r\n    // Make sure uploader address exists\r\n\r\n    require(candidatesCount == imageCount+1);\r\n    // Increment image id\r\n    imageCount ++;\r\n\r\n    // Add Image to the contract\r\n    images[imageCount] = Image(imageCount, _imgHash, _description);\r\n    // Trigger an event\r\n    emit ImageCreated(imageCount, _imgHash, _description);\r\n  }\r\n    \r\n       \r\n}",
  "sourcePath": "F:/Blockchain/Election/Election/contracts/Election.sol",
  "compiler": {
    "name": "solc",
    "version": "0.5.16+commit.9c3226ce.Emscripten.clang"
  },
  "schemaVersion": "3.2.3",
  "updatedAt": "2020-11-22T05:40:15.889Z",
  "networkType": "ethereum",
  "devdoc": {
    "methods": {}
  },
  "userdoc": {
    "methods": {}
  }
}